:100000000C945D000C9485000C9485000C94850084
:100010000C9485000C9485000C9485000C9485004C
:100020000C9485000C9485000C9485000C9485003C
:100030000C9485000C948A040C9485000C94850023
:100040000C94E8030C9485000C9458040C9432042E
:100050000C9485000C9485000C9485000C9485000C
:100060000C9485000C9485000000000024002700FB
:100070002A0000000000250028002B0004040404CE
:100080000404040402020202020203030303030342
:10009000010204081020408001020408102001021F
:1000A00004081020000000080002010000030407FB
:1000B0000000000000000000940411241FBECFEFD8
:1000C000D8E0DEBFCDBF11E0A0E0B1E0E2E5F3E1B2
:1000D00002C005900D92A832B107D9F722E0A8E23C
:1000E000B1E001C01D92AA39B207E1F710E0CDE5F9
:1000F000D0E004C02197FE010E946D08CC35D107E5
:10010000C9F70E945F050C94A7090C94000008959C
:10011000089508950895089508950895862F642FE9
:10012000E0912801F0912901309711F0A90109947B
:10013000089508950F931F93CF93DF938C01EB01E4
:10014000DC018D919C9168816F77DC01ED91FC91D0
:100150000190F081E02D0995F801808191816881FD
:1001600070E0660F672F661F770BDC01ED91FC9145
:100170000190F081E02DDF91CF911F910F910994B3
:10018000EF92FF920F931F93CF93DF93C82F80912D
:100190001002909111020097A9F17A018B01DC0104
:1001A000ED91FC910190F081E02D60EF0995809137
:1001B000100290911102DC01ED91FC910190F0810F
:1001C000E02D6C2F0995E7010E0D1F1DC017D107FB
:1001D00039F0BE0180E192E00E949A002196F6CFAC
:1001E0008091100290911102DC01ED91FC9101903F
:1001F000F081E02D67EFDF91CF911F910F91FF907C
:10020000EF900994DF91CF911F910F91FF90EF90A4
:100210000895CF93DF93FC01A081B181109701F184
:10022000EC01ED91FC9111970190F081E02D69EFC7
:10023000CD01099588819981DC01ED91FC910190B6
:10024000F081E02D62E0099588819981DC01ED91D2
:10025000FC910190F081E02D65E0DF91CF91099450
:10026000DF91CF910895E1EBF0E02491EDE9F0E02A
:100270009491E9E8F0E0E491EE23C9F0222339F00B
:10028000233001F1A8F4213019F1223029F1F0E0F6
:10029000EE0FFF1FEE58FF4FA591B4912FB7F894C2
:1002A000EC91811126C090959E239C932FBF0895B9
:1002B0002730A9F02830C9F0243049F72091800078
:1002C0002F7D03C0209180002F7720938000DFCF07
:1002D00024B52F7724BDDBCF24B52F7DFBCF209114
:1002E000B0002F772093B000D2CF2091B0002F7DA7
:1002F000F9CF9E2BDACF1F93CF93DF93182FEB010B
:1003000080911502909116026817790760F4809128
:10031000130290911402C80FD91F188380E0DF9157
:10032000CF911F910895E0914202F09143023097DE
:1003300011F481E0F4CF81E08093120280912E02CB
:1003400090912F0209958091150290911602C8177D
:10035000D90778F7DCCFCF93DF93EC01FB0130E0D6
:1003600020E0C901880F991F8C179D0778F4408100
:10037000DB014D93BD011197918197959927979531
:10038000942B9C932F5F3F4F3296EBCFC901DF91A7
:10039000CF9108953FB7F89480912F01909130014B
:1003A000A0913101B091320126B5A89B05C02F3F25
:1003B00019F00196A11DB11D3FBFBA2FA92F982F8B
:1003C0008827BC01CD01620F711D811D911D42E086
:1003D000660F771F881F991F4A95D1F708958F924E
:1003E0009F92AF92BF92CF92DF92EF92FF926B01FA
:1003F0007C010E94CA014B015C01C114D104E104DB
:10040000F104B9F00E94CA01681979098A099B09A7
:10041000683E73408105910580F321E0C21AD1083E
:10042000E108F10888EE880E83E0981EA11CB11C3B
:10043000E4CFFF90EF90DF90CF90BF90AF909F9070
:100440008F900895009721F0805C9F4F0C940901D4
:100450000895AF92BF92CF92DF92EF92FF920F93E7
:100460001F93CF93DF936C017B018B01040F151F4A
:10047000EB015E01AE18BF08C017D10759F06991B2
:10048000D601ED91FC910190F081E02DC601099516
:10049000892B79F7C501DF91CF911F910F91FF90C3
:1004A000EF90DF90CF90BF90AF900895FC01538DF7
:1004B000448D252F30E0842F90E0821B930B54173E
:1004C00010F0CF96089501970895FC01918D828DCB
:1004D000981761F0A28DAE0FBF2FB11D5D968C9164
:1004E000928D9F5F9F73928F90E008958FEF9FEFA3
:1004F0000895FC01918D828D981731F0828DE80F5F
:10050000F11D858D90E008958FEF9FEF0895FC0118
:10051000918D228D892F90E0805C9F4F821B9109E5
:100520008F739927089583E391E00E94870221E069
:10053000892B09F420E0822F089580E090E0892B38
:1005400029F00E94930281110C9400000895FC018F
:10055000A48DA80FB92FB11DA35ABF4F2C91848D24
:1005600090E001968F739927848FA689B7892C9381
:10057000A089B1898C91837080648C93938D848DD4
:10058000981306C00288F389E02D80818F7D8083D7
:100590000895EF92FF920F931F93CF93DF93EC0197
:1005A00081E0888F9B8D8C8D98131AC0E889F9891A
:1005B000808185FF15C09FB7F894EE89FF8960831D
:1005C000E889F98980818370806480839FBF81E09E
:1005D00090E0DF91CF911F910F91FF90EF900895E0
:1005E000F62E0B8D10E00F5F1F4F0F731127E02EBB
:1005F0008C8D8E110CC00FB607FCFACFE889F989F3
:10060000808185FFF5CFCE010E94A702F1CFEB8D4F
:10061000EC0FFD2FF11DE35AFF4FF0829FB7F894C6
:100620000B8FEA89FB8980818062CFCFCF93DF93E4
:10063000EC01888D8823B9F0AA89BB89E889F989FA
:100640008C9185FD03C0808186FD0DC00FB607FC2F
:10065000F7CF8C9185FFF2CF808185FFEDCFCE0162
:100660000E94A702E9CFDF91CF910895CF92DF9248
:10067000EF92FF920F931F93CF93DF93FC01E0580B
:10068000FF4FE080EE2009F458C0EC01C05CDF4F62
:10069000A881B981109709F450C0FC01EF57FF4FB2
:1006A000C080D180F60111810081ED91FC911197FC
:1006B0000190F081E02D60EFCD010995888199814D
:1006C000DC01ED91FC910190F081E02D69E7099545
:1006D00088819981DC01ED91FC910190F081E02D00
:1006E000602F099588819981DC01ED91FC91019041
:1006F000F081E02D612F0995F12C01E010E00F5FF2
:100700001F4FE016F10639F0B601600F711FCE01E0
:100710000E949A00F4CF88819981DC01ED91FC91CF
:100720000190F081E02D67EFDF91CF911F910F9144
:10073000FF90EF90DF90CF900994DF91CF911F91C0
:100740000F91FF90EF90DF90CF900895009711F0F8
:100750000C94360308950895EF92FF920F931F9320
:10076000CF93DF9300D0CDB7DEB7182F062F7A01D5
:10077000843029F1803F59F0823091F419821A8235
:10078000AE014F5F5F4F62E070E083E007C081EF32
:100790008983AE014F5F5F4F61E070E00E94C0004F
:1007A000602F70E0A701812F0E94C0000F900F9072
:1007B000DF91CF911F910F91FF90EF9008951982D3
:1007C0001A82AE014F5F5F4F62E070E085E0E6CFD6
:1007D0001F920F920FB60F9211242F933F938F9376
:1007E0009F93AF93BF9380912B0190912C01A09187
:1007F0002D01B0912E0130912A0123E0230F2D37D6
:1008000058F50196A11DB11D20932A0180932B015B
:1008100090932C01A0932D01B0932E0180912F0174
:1008200090913001A0913101B09132010196A11D4A
:10083000B11D80932F0190933001A0933101B093AB
:100840003201BF91AF919F918F913F912F910F9066
:100850000FBE0F901F90189526E8230F0296A11D3A
:10086000B11DD2CF1F920F920FB60F9211242F936A
:100870003F934F935F936F937F938F939F93AF9328
:10088000BF93EF93FF9383E391E00E94A702FF9150
:10089000EF91BF91AF919F918F917F916F915F91F8
:1008A0004F913F912F910F900FBE0F901F90189571
:1008B0001F920F920FB60F9211242F938F939F9335
:1008C000EF93FF93E0914301F09144018081E09127
:1008D0004901F0914A0182FD1BC0908180914C0139
:1008E0008F5F8F7320914D01821741F0E0914C0191
:1008F000F0E0ED5CFE4F958F80934C01FF91EF91FE
:100900009F918F912F910F900FBE0F901F90189570
:100910008081F4CF1F920F920FB60F9211240F9087
:100920000FBE0F901F901895E3E3F1E0138212823F
:1009300088EE93E0A0E0B0E084839583A683B7833C
:100940008AE091E09183808385EC90E095878487AD
:1009500084EC90E09787868780EC90E0918B808B89
:1009600081EC90E0938B828B82EC90E0958B848B72
:1009700086EC90E0978B868B118E128E138E148EE0
:1009800080ED91E0109211021092100290931402E7
:100990008093130220E430E0309316022093150276
:1009A000109217021092180210921A021092190255
:1009B00010921B0210921D0210921C0210921F0234
:1009C00010921E0210922102109220021092230215
:1009D00010922202109225021092240210922702F5
:1009E00010922602109229021092280210922F02D1
:1009F00010922E02109231021092300210923302A5
:100A00001092320210923502109234021092430278
:100A10001092420210921202109250021092520250
:100A2000109251021092950227E830E0309337027D
:100A30002093360228E830E03093390220933802C0
:100A400029E830E030933B0220933A022AE830E074
:100A500030933D0220933C022BE830E030933F027C
:100A600020933E022CE830E0309341022093400274
:100A70002DE830E030934502209344022EE830E028
:100A8000309347022093460226EA33E0309349022E
:100A90002093480290932B0280932A0222E232E0B4
:100AA00030934B0220934A0290932D0280932C02A4
:100AB00089E990E090934D0280934C0208957894D8
:100AC00084B5826084BD84B5816084BD85B5826053
:100AD00085BD85B5816085BD80916E008160809304
:100AE0006E0010928100809181008260809381006D
:100AF000809181008160809381008091800081607D
:100B0000809380008091B10084608093B1008091D7
:100B1000B00081608093B00080917A0084608093FF
:100B20007A0080917A00826080937A0080917A00C6
:100B3000816080937A0080917A00806880937A0047
:100B40001092C10088E080935002809151029091F0
:100B500052020E940F09C0915002D0E0CE010196CE
:100B60000E9473089093520280935102FC01EC0F93
:100B7000FD1F108221E0DC012C9311961C92AE0126
:100B8000425051096CE171E002960E9498098CEA8A
:100B900093E09093290180932801E0914301F09123
:100BA000440182E08083E0914301F091440110828E
:100BB000E0913F01F09140011082E0914101F091FC
:100BC000420180E1808310924B01E0914701F09156
:100BD000480186E08083E0914501F09146018081E3
:100BE00080618083E0914501F091460180818860B9
:100BF0008083E0914501F091460180818068808387
:100C0000E0914501F091460180818F7D8083809144
:100C10009502811160C0EDE9F0E02491E9E8F0E08F
:100C20008491882399F090E0880F991FFC01E8597E
:100C3000FF4FA591B491FC01EE58FF4F859194911F
:100C40008FB7F894EC91E22BEC938FBF62ED70E0DC
:100C500080E090E00E94EF0181E00E94330168E2B1
:100C600070E080E090E00E94EF0180E00E9433019C
:100C700062ED70E080E090E00E94EF0181E00E9470
:100C8000330168E270E080E090E00E94EF0180E0D4
:100C90000E9433016AEF70E080E090E00E94EF0173
:100CA000C5E062ED70E080E090E00E94EF0181E03D
:100CB0000E94330168E270E080E090E00E94EF0162
:100CC00080E00E943301C15061F76DE770E080E081
:100CD00090E00E94EF0183E391E090934F028093B4
:100CE0004E02909311028093100280E192E00E94E4
:100CF000090180ED91E00E943603C0E0D0E0DD24E0
:100D0000D39402E010E0EE24E394F12C80914E02A3
:100D100090914F02DC01ED91FC910084F185E02D72
:100D20000995892B09F4CEC180914E0290914F0212
:100D3000DC01ED91FC910284F385E02D09959C0185
:100D40008F3F980719F3982F80911B02882309F48D
:100D500092C0973F09F07EC010921B02A09113022F
:100D6000B09114026C916137C1F1693709F05CC030
:100D7000E0914802F0914902309741F280911C02C3
:100D800090911D028330910560F430E020E050E046
:100D900040E070E060E080912A0290912B0209957A
:100DA000B5CFBD016D5F7F4F03970E94AB01BC01C2
:100DB0006D5F7F4F80E00E947B01E0911302F09114
:100DC00014029F012D5F3F4F428150E0618170E02E
:100DD000E0914802F0914902DECF80914402909167
:100DE0004502892B09F492CFBD016F5F7F4F80913F
:100DF0001C0290911D0201970E94AB01BC016F5F24
:100E00007F4F80E00E947B01609113027091140279
:100E10006F5F7F4FE0914402F09145028091300274
:100E200090913102099572CFE0914602F09147020C
:100E3000309709F46BCF9D012F5F3F4F40911C020B
:100E400050911D024150510980913202909133021C
:100E500009955CCF60911C0270911D02822F0E9447
:100E60007B0180911C0290911D02019690931D02BE
:100E700080931C024BCF6091190270911A02611588
:100E8000710509F4B1C027FDAFC0615071097093BD
:100E90001A0260931902822F0E947B01809119022D
:100EA00090911A02892B09F031CF80911702882383
:100EB00009F42CCF803D09F483C040F4803949F116
:100EC000803C09F469C01092170220CF843FE1F101
:100ED000853F09F44DC0803EB1F7E0913602F091B4
:100EE0003702309781F3A0911302B09114024C9114
:100EF00020E8429FC001112411964C91480F592FB0
:100F0000511D6091180280911E0290911F02099557
:100F1000DACFE0913802F09139023097A1F2A09136
:100F20001302B09114024C9120E8429FC001112499
:100F300011964C91480F592F511D609118028091C4
:100F4000200290912102E3CFE0913E02F0913F0216
:100F5000309709F4B8CFA0911302B09114024C91CC
:100F600050E011966C918091260290912702CFCF8C
:100F7000E0914002F0914102309709F4A4CFA09192
:100F80001302B09114024C9150E011966C91809133
:100F9000280290912902BBCFE0913A02F0913B02E6
:100FA000309709F490CFA0911302B09114024C91A4
:100FB00050E0609118028091220290912302A7CF05
:100FC000E0913C02F0913D02309709F47CCFA09172
:100FD0001302B09114024C9150E06091180280917C
:100FE00024029091250293CF903F30F4822F8F708E
:100FF00080931802922F907F903FF1F190F4903CF3
:10100000B1F150F4903909F081CE10931A02009397
:101010001902909317027ACE903D49F1903EA9F3C0
:1010200075CE993F09F442C028F48CE0890F8230D4
:1010300060F36CCE9F3F09F069CE10921A021092B5
:101040001902109217021092180290E080E020918D
:1010500015023091160282179307A8F4E09113024B
:10106000F0911402E80FF91F10820196F0CFF09270
:101070001A02E0921902CDCFD0921B0210921D02EB
:1010800010921C0243CE10921B0210921D0210926D
:101090001C02E0914C02F0914D028091340290913B
:1010A0003502309709F432CE099530CEE0914A02EC
:1010B000F0914B02309709F429CE80912C02909147
:1010C0002D02F2CF209709F421CE0E9493028823AB
:1010D00009F41CCE0E94000019CEEE0FFF1F0590F0
:1010E000F491E02D09940F931F93CF93DF938230F7
:1010F000910510F482E090E0E0919802F09199025D
:1011000030E020E0B0E0A0E0309799F421153105FF
:1011100009F44AC0281B390B24303105D8F58A81DF
:101120009B816115710589F1FB0193838283FE0127
:1011300011C0408151810281138148175907E0F0A5
:101140004817590799F4109761F012960C9312976B
:1011500013961C933296CF01DF91CF911F910F917F
:1011600008950093980210939902F4CF2115310548
:1011700051F04217530738F0A901DB019A01BD0174
:10118000DF01F801C1CFEF01F9CF9093990280936D
:101190009802CDCFFE01E20FF31F8193919322506D
:1011A000310939832883D7CF209196023091970255
:1011B000232B41F4209102013091030130939702D7
:1011C00020939602209100013091010121153105F3
:1011D00041F42DB73EB74091040150910501241B05
:1011E000350BE0919602F0919702E217F307A0F415
:1011F0002E1B3F0B2817390778F0AC014E5F5F4F6D
:101200002417350748F04E0F5F1F50939702409305
:101210009602819391939FCFF0E0E0E09CCFCF9333
:10122000DF930097E9F0FC01329713821282A091BC
:101230009802B0919902ED0130E020E01097A1F4FE
:1012400020813181820F931F209196023091970265
:101250002817390709F061C0F0939702E0939602CE
:10126000DF91CF910895EA01CE17DF07E8F54A81B3
:101270005B819E0141155105B1F7E901FB83EA83CA
:1012800049915991C40FD51FEC17FD0761F4808176
:1012900091810296840F951FE90199838883828149
:1012A00093819B838A83F0E0E0E012968D919C917C
:1012B00013970097B9F52D913C911197CD010296A6
:1012C000820F931F209196023091970228173907B9
:1012D00039F6309751F51092990210929802B09316
:1012E0009702A0939602BCCFD383C28340815181E1
:1012F000840F951FC817D90761F44E5F5F4F88812F
:101300009981480F591F518340838A819B81938320
:1013100082832115310509F0B0CFF0939902E09353
:1013200098029ECFFD01DC01C0CF13821282D7CF7D
:10133000FB01DC014150504048F001900D9200202B
:10134000C9F701C01D9241505040E0F70895F8944C
:02135000FFCFCD
:1013520000009A02800000000000C9022902560221
:1013620016038702650279027372635C53657269C0
:08137200616C2E637070000035
:00000001FF
