:100000000C9462000C948A000C948A000C948A0070
:100010000C948A000C948A000C948A000C948A0038
:100020000C948A000C948A000C948A000C948A0028
:100030000C948A000C94BD040C948A000C948A00E1
:100040000C941B040C948A000C948B040C9465048F
:100050000C948A000C948A000C948A000C948A00F8
:100060000C948A000C948A000000000023002600F3
:10007000290000000008000201000003040700003E
:1000800000000000000000000000250028002B00F8
:1000900000000000240027002A00040404040404D3
:1000A0000404020202020202030303030303010227
:1000B00004081020408001020408102001020408F6
:1000C0001020C70411241FBECFEFD8E0DEBFCDBF84
:1000D00011E0A0E0B1E0E6E9F4E102C005900D9284
:1000E000A832B107D9F722E0A8E2B1E001C01D9221
:1000F000AE39B207E1F710E0C2E6D0E004C02197C4
:10010000FE010E940F09C136D107C9F70E9492056E
:100110000C94490A0C9400000895089508950895D8
:10012000089508950895862F642FE0912801F09195
:100130002901309711F0A9010994089508950F93AA
:100140001F93CF93DF938C01EB01DC018D919C9188
:1001500068816F77DC01ED91FC910190F081E02DD9
:100160000995F80180819181688170E0660F672FA1
:10017000661F770BDC01ED91FC910190F081E02D81
:10018000DF91CF911F910F910994EF92FF920F93FE
:100190001F93CF93DF93C82F809114029091150283
:1001A0000097A9F17A018B01DC01ED91FC9101909E
:1001B000F081E02D60EF0995809114029091150275
:1001C000DC01ED91FC910190F081E02D6C2F0995FF
:1001D000E7010E0D1F1DC017D10739F0BE0184E1E4
:1001E00092E00E949F002196F6CF80911402909198
:1001F0001502DC01ED91FC910190F081E02D67EF9B
:10020000DF91CF911F910F91FF90EF900994DF91B3
:10021000CF911F910F91FF90EF900895CF93DF93AF
:10022000FC01A081B181109701F1EC01ED91FC91ED
:1002300011970190F081E02D69EFCD01099588813A
:100240009981DC01ED91FC910190F081E02D62E05B
:10025000099588819981DC01ED91FC910190F081F3
:10026000E02D65E0DF91CF910994DF91CF91089562
:1002700090E0FC01E255FF4F249186569F4FFC0110
:100280008491882399F090E0880F991FFC01E05732
:10029000FF4FA591B491FC01EA57FF4F85919491CE
:1002A0008FB7F894EC91E22BEC938FBF08951F93D6
:1002B000CF93DF93182FEB018091190290911A02CE
:1002C0006817790760F48091170290911802C80F9F
:1002D000D91F188380E0DF91CF911F910895E0919D
:1002E0004602F0914702309711F481E0F4CF81E0AB
:1002F0008093160280913202909133020995809189
:10030000190290911A02C817D90778F7DCCFCF935A
:10031000DF93EC01FB0130E020E0C901880F991F59
:100320008C179D0778F44081DB014D93BD01119737
:100330009181979599279795942B9C932F5F3F4F89
:100340003296EBCFC901DF91CF910895833081F0D0
:1003500028F4813099F08230A9F008958730A9F00F
:100360008830C9F08430B1F4809180008F7D03C063
:10037000809180008F7780938000089584B58F7777
:1003800084BD089584B58F7DFBCF8091B0008F77B9
:100390008093B00008958091B0008F7DF9CF1F93B6
:1003A000CF93DF93282F30E0F901EE58FF4F84916F
:1003B000F901E255FF4FD491F901E656FF4FC49180
:1003C000CC23A9F0162F81110E94A601EC2FF0E09A
:1003D000EE0FFF1FEA57FF4FA591B4918FB7F89426
:1003E000EC91111108C0D095DE23DC938FBFDF9113
:1003F000CF911F910895DE2BF8CF3FB7F8948091ED
:10040000330190913401A0913501B091360126B5A8
:10041000A89B05C02F3F19F00196A11DB11D3FBF3C
:10042000BA2FA92F982F8827BC01CD01620F711D0B
:10043000811D911D42E0660F771F881F991F4A9505
:10044000D1F708958F929F92AF92BF92CF92DF9291
:10045000EF92FF926B017C010E94FD014B015C0158
:10046000C114D104E104F104B9F00E94FD0168193E
:1004700079098A099B09683E73408105910580F3DB
:1004800021E0C21AD108E108F10888EE880E83E065
:10049000981EA11CB11CE4CFFF90EF90DF90CF908D
:1004A000BF90AF909F908F900895009721F0805C4F
:1004B0009F4F0C940E010895AF92BF92CF92DF929E
:1004C000EF92FF920F931F93CF93DF936C017B0109
:1004D0008B01040F151FEB015E01AE18BF08C0179A
:1004E000D10759F06991D601ED91FC910190F0810D
:1004F000E02DC6010995892B79F7C501DF91CF91D0
:100500001F910F91FF90EF90DF90CF90BF90AF9031
:100510000895FC01538D448D252F30E0842F90E009
:10052000821B930B541710F0CF96089501970895EE
:10053000FC01918D828D981761F0A28DAE0FBF2FB7
:10054000B11D5D968C91928D9F5F9F73928F90E00D
:1005500008958FEF9FEF0895FC01918D828D98177C
:1005600031F0828DE80FF11D858D90E008958FEFB9
:100570009FEF0895FC01918D228D892F90E0805C82
:100580009F4F821B91098F739927089587E391E00C
:100590000E94BA0221E0892B09F420E0822F0895FD
:1005A00080E090E0892B29F00E94C60281110C9412
:1005B00000000895FC01A48DA80FB92FB11DA35A06
:1005C000BF4F2C91848D90E001968F739927848F73
:1005D000A689B7892C93A089B1898C918370806496
:1005E0008C93938D848D981306C00288F389E02D37
:1005F00080818F7D80830895EF92FF920F931F93E8
:10060000CF93DF93EC0181E0888F9B8D8C8D9813C5
:100610001AC0E889F989808185FF15C09FB7F894D1
:10062000EE89FF896083E889F9898081837080641D
:1006300080839FBF81E090E0DF91CF911F910F9168
:10064000FF90EF900895F62E0B8D10E00F5F1F4F77
:100650000F731127E02E8C8D8E110CC00FB607FC86
:10066000FACFE889F989808185FFF5CFCE010E9414
:10067000DA02F1CFEB8DEC0FFD2FF11DE35AFF4FA6
:10068000F0829FB7F8940B8FEA89FB8980818062A2
:10069000CFCFCF93DF93EC01888D8823B9F0AA895F
:1006A000BB89E889F9898C9185FD03C0808186FD2D
:1006B0000DC00FB607FCF7CF8C9185FFF2CF80817C
:1006C00085FFEDCFCE010E94DA02E9CFDF91CF9115
:1006D0000895CF92DF92EF92FF920F931F93CF93E3
:1006E000DF93FC01E058FF4FE080EE2009F458C092
:1006F000EC01C05CDF4FA881B981109709F450C0AC
:10070000FC01EF57FF4FC080D180F60111810081BD
:10071000ED91FC9111970190F081E02D60EFCD01FA
:10072000099588819981DC01ED91FC910190F0811E
:10073000E02D69E7099588819981DC01ED91FC91B3
:100740000190F081E02D602F099588819981DC016D
:10075000ED91FC910190F081E02D612F0995F12C34
:1007600001E010E00F5F1F4FE016F10639F0B6010F
:10077000600F711FCE010E949F00F4CF8881998184
:10078000DC01ED91FC910190F081E02D67EFDF91AC
:10079000CF911F910F91FF90EF90DF90CF90099430
:1007A000DF91CF911F910F91FF90EF90DF90CF904D
:1007B0000895009711F00C94690308950895EF923D
:1007C000FF920F931F93CF93DF9300D0CDB7DEB787
:1007D000182F062F7A01843029F1803F59F082309A
:1007E00091F419821A82AE014F5F5F4F62E070E0B0
:1007F00083E007C081EF8983AE014F5F5F4F61E007
:1008000070E00E94C500602F70E0A701812F0E9458
:10081000C5000F900F90DF91CF911F910F91FF9026
:10082000EF90089519821A82AE014F5F5F4F62E028
:1008300070E085E0E6CF1F920F920FB60F92112461
:100840002F933F938F939F93AF93BF9380912F01EB
:1008500090913001A0913101B091320130912E017F
:1008600023E0230F2D3758F50196A11DB11D2093CC
:100870002E0180932F0190933001A0933101B0930A
:1008800032018091330190913401A0913501B091F2
:1008900036010196A11DB11D80933301909334015F
:1008A000A0933501B0933601BF91AF919F918F9185
:1008B0003F912F910F900FBE0F901F90189526E833
:1008C000230F0296A11DB11DD2CF1F920F920FB61A
:1008D0000F9211242F933F934F935F936F937F93C6
:1008E0008F939F93AF93BF93EF93FF9387E391E031
:1008F0000E94DA02FF91EF91BF91AF919F918F918A
:100900007F916F915F914F913F912F910F900FBE0B
:100910000F901F9018951F920F920FB60F921124EF
:100920002F938F939F93EF93FF93E0914701F09163
:1009300048018081E0914D01F0914E0182FD1BC084
:100940009081809150018F5F8F73209151018217A8
:1009500041F0E0915001F0E0E95CFE4F958F80930B
:100960005001FF91EF919F918F912F910F900FBEAA
:100970000F901F9018958081F4CF1F920F920FB6A1
:100980000F9211240F900FBE0F901F901895E7E360
:10099000F1E01382128288EE93E0A0E0B0E084835D
:1009A0009583A683B7838AE091E09183808385EC69
:1009B00090E09587848784EC90E09787868780EC29
:1009C00090E0918B808B81EC90E0938B828B82EC1A
:1009D00090E0958B848B86EC90E0978B868B118EC4
:1009E000128E138E148E84ED91E0109215021092E7
:1009F0001402909318028093170220E430E03093A1
:100A00001A022093190210921B0210921C021092DB
:100A10001E0210921D0210921F02109221021092CB
:100A200020021092230210922202109225021092AC
:100A3000240210922702109226021092290210928C
:100A4000280210922B0210922A0210922D0210926C
:100A50002C02109233021092320210923502109240
:100A6000340210923702109236021092390210921C
:100A7000380210924702109246021092160210920B
:100A800054021092560210925502109299022CE8CC
:100A900030E030933B0220933A022DE830E030936F
:100AA0003D0220933C022EE830E030933F02209339
:100AB0003E022FE830E0309341022093400220E9CB
:100AC00030E0309343022093420221E930E030933A
:100AD00045022093440222E930E0309349022093FA
:100AE000480223E930E030934B0220934A0229ED7B
:100AF00033E030934D0220934C0290932F02809369
:100B00002E0225E532E030934F0220934E0290935F
:100B10003102809330028EE990E0909351028093ED
:100B200050020895789484B5826084BD84B5816054
:100B300084BD85B5826085BD85B5816085BD8091A8
:100B40006E00816080936E00109281008091810020
:100B50008260809381008091810081608093810018
:100B6000809180008160809380008091B1008460DA
:100B70008093B1008091B00081608093B00080913B
:100B80007A00846080937A0080917A0082608093FA
:100B90007A0080917A00816080937A0080917A0057
:100BA000806880937A001092C10088E0809354029C
:100BB00080915502909156020E94B109C091540251
:100BC000D0E0CE0101960E941509909356028093C1
:100BD0005502FC01EC0FFD1F108221E0DC012C937B
:100BE00011961C92AE01425051096CE171E00296DF
:100BF0000E943A0A8FED93E0909329018093280197
:100C0000E0914701F091480182E08083E091470143
:100C1000F09148011082E0914301F091440110826B
:100C2000E0914501F091460180E1808310924F01EF
:100C3000E0914B01F0914C0186E08083E091490105
:100C4000F0914A01808180618083E0914901F091B7
:100C50004A01808188608083E0914901F0914A01D6
:100C6000808180688083E0914901F0914A01808110
:100C70008F7D80838091990281114EC08DE00E940A
:100C8000380162ED70E080E090E00E94220261E0B5
:100C90008DE00E94CF0168E270E080E090E00E9469
:100CA000220260E08DE00E94CF0162ED70E080E002
:100CB00090E00E94220261E08DE00E94CF0168E294
:100CC00070E080E090E00E94220260E08DE00E94EF
:100CD000CF016AEF70E080E090E00E942202C5E060
:100CE00062ED70E080E090E00E94220261E08DE021
:100CF0000E94CF0168E270E080E090E00E94220252
:100D000060E08DE00E94CF01C15051F76DE770E0C7
:100D100080E090E00E94220287E391E090935302EA
:100D200080935202909315028093140284E192E022
:100D30000E940E0184ED91E00E94690381E10E940E
:100D4000380161E081E10E94CF012FB7F8948091D2
:100D50002F0190913001A0913101B09132012FBF4C
:100D600088519C4FAF4FBF4F80932A0190932B0126
:100D7000A0932C01B0932D0177247394C3E8D0E0A5
:100D80000FEB10E09BEAE92E90E0F92E20E0C22E56
:100D900020E0D22E32E0A32EB12C88248394912C13
:100DA0008091520290915302DC01ED91FC910084FC
:100DB000F185E02D0995892B09F4CEC1809152026D
:100DC00090915302DC01ED91FC910284F385E02DBA
:100DD00009959C018F3F980719F3982F80911F0266
:100DE000882309F492C0973F09F07EC010921F0239
:100DF000A0911702B09118026C916137C1F1693767
:100E000009F05CC0E0914C02F0914D02309741F244
:100E100080912002909121028330910560F430E0AE
:100E200020E050E040E070E060E080912E02909180
:100E30002F020995B5CFBD016D5F7F4F03970E94CB
:100E40008701BC016D5F7F4F80E00E945701E091F8
:100E50001702F09118029F012D5F3F4F428150E031
:100E6000618170E0E0914C02F0914D02DECF809103
:100E7000480290914902892B09F492CFBD016F5F1E
:100E80007F4F809120029091210201970E9487015B
:100E9000BC016F5F7F4F80E00E9457016091170295
:100EA000709118026F5F7F4FE0914802F091490204
:100EB0008091340290913502099572CFE0914A02F7
:100EC000F0914B02309709F46BCF9D012F5F3F4F9C
:100ED00040912002509121024150510980913602E7
:100EE0009091370209955CCF6091200270912102A8
:100EF000822F0E9457018091200290912102019639
:100F000090932102809320024BCF60911D0270913B
:100F10001E026115710509F4B1C027FDAFC0615013
:100F2000710970931E0260931D02822F0E94570167
:100F300080911D0290911E02892B09F031CF809182
:100F40001B02882309F42CCF803D09F483C040F4B0
:100F5000803949F1803C09F469C010921B0220CF0E
:100F6000843FE1F1853F09F44DC0803EB1F7E09147
:100F70003A02F0913B02309781F3A0911702B091B1
:100F800018024C9120E8429FC001112411964C9107
:100F9000480F592F511D60911C028091220290919F
:100FA00023020995DACFE0913C02F0913D0230979F
:100FB000A1F2A0911702B09118024C9120E8429F33
:100FC000C001112411964C91480F592F511D609169
:100FD0001C028091240290912502E3CFE09142020D
:100FE000F0914302309709F4B8CFA0911702B09165
:100FF00018024C9150E011966C9180912A029091C8
:101000002B02CFCFE0914402F0914502309709F4D2
:10101000A4CFA0911702B09118024C9150E0119604
:101020006C9180912C0290912D02BBCFE0913E02F9
:10103000F0913F02309709F490CFA0911702B09140
:1010400018024C9150E060911C0280912602909110
:101050002702A7CFE0914002F0914102309709F4B6
:101060007CCFA0911702B09118024C9150E0609192
:101070001C02809128029091290293CF903F30F476
:10108000822F8F7080931C02922F907F903FF1F1FE
:1010900090F4903CB1F150F4903909F081CEB092C7
:1010A0001E02A0921D0290931B027ACE903D49F140
:1010B000903EA9F375CE993F09F442C028F48CE024
:1010C000890F823060F36CCE9F3F09F069CE109299
:1010D0001E0210921D0210921B0210921C0290E040
:1010E00080E02091190230911A0282179307A8F428
:1010F000E0911702F0911802E80FF91F1082019693
:10110000F0CF90921E0280921D02CDCF70921F02EE
:10111000109221021092200243CE10921F021092D0
:10112000210210922002E0915002F0915102809130
:10113000380290913902309709F432CE099530CEB9
:10114000E0914E02F0914F02309709F429CE809140
:10115000300290913102F2CF80912A0190912B01BF
:10116000A0912C01B0912D012FB7F89440912F013F
:101170005091300160913101709132012FBF4817B9
:1011800059076A077B0790F0481B590B6A0B7B0BCA
:1011900077FF12C0C114D10409F402CE0E94C60226
:1011A000882309F4FDCD0E940000FACD841B950B25
:1011B000A60BB70BB7FFEECFFE018491F801649048
:1011C000F7015490552079F081110E94A601E52D78
:1011D000F0E0EE0FFF1FE859FF4FA591B4918C91FD
:1011E000682260E009F461E081E10E94CF012FB73D
:1011F000F89480912F0190913001A0913101B0912C
:1012000032012FBF88519C4FAF4FBF4F80932A01AF
:1012100090932B01A0932C01B0932D01BBCFEE0F27
:10122000FF1F0590F491E02D09940F931F93CF9326
:10123000DF938230910510F482E090E0E0919C020F
:10124000F0919D0230E020E0B0E0A0E0309799F40A
:101250002115310509F44AC0281B390B243031050A
:10126000D8F58A819B816115710589F1FB01938312
:101270008283FE0111C04081518102811381481790
:101280005907E0F04817590799F4109761F0129642
:101290000C93129713961C933296CF01DF91CF9146
:1012A0001F910F91089500939C0210939D02F4CF1B
:1012B0002115310551F04217530738F0A901DB0120
:1012C0009A01BD01DF01F801C1CFEF01F9CF909381
:1012D0009D0280939C02CDCFFE01E20FF31F81930C
:1012E00091932250310939832883D7CF20919A02D4
:1012F00030919B02232B41F4209102013091030194
:1013000030939B0220939A022091000130910101B9
:101310002115310541F42DB73EB74091040150919C
:101320000501241B350BE0919A02F0919B02E21714
:10133000F307A0F42E1B3F0B2817390778F0AC01F8
:101340004E5F5F4F2417350748F04E0F5F1F5093D5
:101350009B0240939A02819391939FCFF0E0E0E04B
:101360009CCFCF93DF930097E9F0FC013297138273
:101370001282A0919C02B0919D02ED0130E020E02C
:101380001097A1F420813181820F931F20919A023E
:1013900030919B022817390709F061C0F0939B0236
:1013A000E0939A02DF91CF910895EA01CE17DF070B
:1013B000E8F54A815B819E0141155105B1F7E901CC
:1013C000FB83EA8349915991C40FD51FEC17FD07A0
:1013D00061F4808191810296840F951FE9019983C0
:1013E0008883828193819B838A83F0E0E0E0129678
:1013F0008D919C9113970097B9F52D913C91119780
:10140000CD010296820F931F20919A0230919B0288
:101410002817390739F6309751F510929D0210922E
:101420009C02B0939B02A0939A02BCCFD383C28349
:1014300040815181840F951FC817D90761F44E5F11
:101440005F4F88819981480F591F518340838A815A
:101450009B81938382832115310509F0B0CFF093EE
:101460009D02E0939C029ECFFD01DC01C0CF138260
:101470001282D7CFFB01DC014150504048F001906F
:101480000D920020C9F701C01D9241505040E0F775
:061490000895F894FFCF5F
:1014960000009E02800000000000FC025C0289023F
:1014A6004903BA029802AC027372635C53657269AF
:0814B600616C2E6370700000F0
:00000001FF
