:100000000C9462000C948A000C948A000C948A0070
:100010000C948A000C948A000C948A000C948A0038
:100020000C948A000C948A000C948A000C948A0028
:100030000C948A000C94C7040C948A000C948A00D7
:100040000C9425040C948A000C9495040C946F0471
:100050000C948A000C948A000C948A000C948A00F8
:100060000C948A000C948A000000000023002600F3
:10007000290000000008000201000003040700003E
:1000800000000000000000000000250028002B00F8
:1000900000000000240027002A00040404040404D3
:1000A0000404020202020202030303030303010227
:1000B00004081020408001020408102001020408F6
:1000C0001020D10411241FBECFEFD8E0DEBFCDBF7A
:1000D00011E0A0E0B1E0E6EBF4E102C005900D9282
:1000E000A832B107D9F722E0A8E2B1E001C01D9221
:1000F000A13AB207E1F710E0C2E6D0E004C02197D0
:10010000FE010E941F09C136D107C9F70E949C0554
:100110000C94590A0C9400000895089508950895C8
:10012000089508950895862F642FE0912801F09195
:100130002901309711F0A9010994089508950F93AA
:100140001F93CF93DF938C01EB01DC018D919C9188
:1001500068816F77DC01ED91FC910190F081E02DD9
:100160000995F80180819181688170E0660F672FA1
:10017000661F770BDC01ED91FC910190F081E02D81
:10018000DF91CF911F910F910994EF92FF920F93FE
:100190001F93CF93DF93C82F80911702909118027D
:1001A0000097A9F17A018B01DC01ED91FC9101909E
:1001B000F081E02D60EF099580911702909118026F
:1001C000DC01ED91FC910190F081E02D6C2F0995FF
:1001D000E7010E0D1F1DC017D10739F0BE0187E1E1
:1001E00092E00E949F002196F6CF80911702909195
:1001F0001802DC01ED91FC910190F081E02D67EF98
:10020000DF91CF911F910F91FF90EF900994DF91B3
:10021000CF911F910F91FF90EF900895CF93DF93AF
:10022000FC01A081B181109701F1EC01ED91FC91ED
:1002300011970190F081E02D69EFCD01099588813A
:100240009981DC01ED91FC910190F081E02D62E05B
:10025000099588819981DC01ED91FC910190F081F3
:10026000E02D65E0DF91CF910994DF91CF91089562
:1002700090E0FC01E255FF4F249186569F4FFC0110
:100280008491882399F090E0880F991FFC01E05732
:10029000FF4FA591B491FC01EA57FF4F85919491CE
:1002A0008FB7F894EC91E22BEC938FBF08951F93D6
:1002B000CF93DF93182FEB0180911C0290911D02C8
:1002C0006817790760F480911A0290911B02C80F99
:1002D000D91F188380E0DF91CF911F910895E0919D
:1002E0004902F0914A02309711F481E0F4CF81E0A5
:1002F0008093190280913502909136020995809180
:100300001C0290911D02C817D90778F7DCCFCF9354
:10031000DF93EC01FB0130E020E0C901880F991F59
:100320008C179D0778F44081DB014D93BD01119737
:100330009181979599279795942B9C932F5F3F4F89
:100340003296EBCFC901DF91CF910895833081F0D0
:1003500028F4813099F08230A9F008958730A9F00F
:100360008830C9F08430B1F4809180008F7D03C063
:10037000809180008F7780938000089584B58F7777
:1003800084BD089584B58F7DFBCF8091B0008F77B9
:100390008093B00008958091B0008F7DF9CF1F93B6
:1003A000CF93DF93282F30E0F901EE58FF4F84916F
:1003B000F901E255FF4FD491F901E656FF4FC49180
:1003C000CC23A9F0162F81110E94A601EC2FF0E09A
:1003D000EE0FFF1FEA57FF4FA591B4918FB7F89426
:1003E000EC91111108C0D095DE23DC938FBFDF9113
:1003F000CF911F910895DE2BF8CF3FB7F8948091ED
:10040000360190913701A0913801B091390126B59C
:10041000A89B05C02F3F19F00196A11DB11D3FBF3C
:10042000BA2FA92F982F8827BC01CD01620F711D0B
:10043000811D911D42E0660F771F881F991F4A9505
:10044000D1F708958F929F92AF92BF92CF92DF9291
:10045000EF92FF926B017C010E94FD014B015C0158
:10046000C114D104E104F104B9F00E94FD0168193E
:1004700079098A099B09683E73408105910580F3DB
:1004800021E0C21AD108E108F10888EE880E83E065
:10049000981EA11CB11CE4CFFF90EF90DF90CF908D
:1004A000BF90AF909F908F900895009721F0805C4F
:1004B0009F4F0C940E010895AF92BF92CF92DF929E
:1004C000EF92FF920F931F93CF93DF936C017B0109
:1004D0008B01040F151FEB015E01AE18BF08C0179A
:1004E000D10759F06991D601ED91FC910190F0810D
:1004F000E02DC6010995892B79F7C501DF91CF91D0
:100500001F910F91FF90EF90DF90CF90BF90AF9031
:100510000895FC01538D448D252F30E0842F90E009
:10052000821B930B541710F0CF96089501970895EE
:10053000FC01918D828D981761F0A28DAE0FBF2FB7
:10054000B11D5D968C91928D9F5F9F73928F90E00D
:1005500008958FEF9FEF0895FC01918D828D98177C
:1005600031F0828DE80FF11D858D90E008958FEFB9
:100570009FEF0895FC01918D228D892F90E0805C82
:100580009F4F821B91098F73992708958AE391E009
:100590000E94BA0221E0892B09F420E0822F0895FD
:1005A00080E090E0892B29F00E94C60281110C9412
:1005B00000000895FC01A48DA80FB92FB11DA35A06
:1005C000BF4F2C91848D90E001968F739927848F73
:1005D000A689B7892C93A089B1898C918370806496
:1005E0008C93938D848D981306C00288F389E02D37
:1005F00080818F7D80830895EF92FF920F931F93E8
:10060000CF93DF93EC0181E0888F9B8D8C8D9813C5
:100610001AC0E889F989808185FF15C09FB7F894D1
:10062000EE89FF896083E889F9898081837080641D
:1006300080839FBF81E090E0DF91CF911F910F9168
:10064000FF90EF900895F62E0B8D10E00F5F1F4F77
:100650000F731127E02E8C8D8E110CC00FB607FC86
:10066000FACFE889F989808185FFF5CFCE010E9414
:10067000DA02F1CFEB8DEC0FFD2FF11DE35AFF4FA6
:10068000F0829FB7F8940B8FEA89FB8980818062A2
:10069000CFCFCF93DF93EC01888D8823B9F0AA895F
:1006A000BB89E889F9898C9185FD03C0808186FD2D
:1006B0000DC00FB607FCF7CF8C9185FFF2CF80817C
:1006C00085FFEDCFCE010E94DA02E9CFDF91CF9115
:1006D0000895CF92DF92EF92FF920F931F93CF93E3
:1006E000DF93FC01E058FF4FE080EE2009F458C092
:1006F000EC01C05CDF4FA881B981109709F450C0AC
:10070000FC01EF57FF4FC080D180F60111810081BD
:10071000ED91FC9111970190F081E02D60EFCD01FA
:10072000099588819981DC01ED91FC910190F0811E
:10073000E02D69E7099588819981DC01ED91FC91B3
:100740000190F081E02D602F099588819981DC016D
:10075000ED91FC910190F081E02D612F0995F12C34
:1007600001E010E00F5F1F4FE016F10639F0B6010F
:10077000600F711FCE010E949F00F4CF8881998184
:10078000DC01ED91FC910190F081E02D67EFDF91AC
:10079000CF911F910F91FF90EF90DF90CF90099430
:1007A000DF91CF911F910F91FF90EF90DF90CF904D
:1007B0000895009711F00C94690308950895EF923D
:1007C000FF920F931F93CF93DF9300D01F92CDB76B
:1007D000DEB7182F062F7A01843071F1803F59F06F
:1007E0008230D1F419821A82AE014F5F5F4F62E00E
:1007F00070E083E00FC080912C01898380912B01F0
:100800008A8380912A018B83AE014F5F5F4F63E043
:1008100070E081EF0E94C500602F70E0A701812F7A
:100820000E94C5000F900F900F90DF91CF911F9104
:100830000F91FF90EF90089519821A82AE014F5FD9
:100840005F4F62E070E085E0E5CF1F920F920FB638
:100850000F9211242F933F938F939F93AF93BF9346
:100860008091320190913301A0913401B091350112
:100870003091310123E0230F2D3758F50196A11D4A
:10088000B11D209331018093320190933301A093E5
:100890003401B09335018091360190913701A091D8
:1008A0003801B09139010196A11DB11D8093360127
:1008B00090933701A0933801B0933901BF91AF9164
:1008C0009F918F913F912F910F900FBE0F901F908E
:1008D000189526E8230F0296A11DB11DD2CF1F92B5
:1008E0000F920FB60F9211242F933F934F935F9364
:1008F0006F937F938F939F93AF93BF93EF93FF93E8
:100900008AE391E00E94DA02FF91EF91BF91AF91EB
:100910009F918F917F916F915F914F913F912F9117
:100920000F900FBE0F901F9018951F920F920FB649
:100930000F9211242F938F939F93EF93FF93E09146
:100940004A01F0914B018081E0915001F0915101F9
:1009500082FD1BC09081809153018F5F8F73209126
:100960005401821741F0E0915301F0E0E65CFE4F44
:10097000958F80935301FF91EF919F918F912F91CC
:100980000F900FBE0F901F9018958081F4CF1F928B
:100990000F920FB60F9211240F900FBE0F901F9061
:1009A0001895EAE3F1E01382128288EE93E0A0E06A
:1009B000B0E084839583A683B7838AE091E0918336
:1009C000808385EC90E09587848784EC90E097871E
:1009D000868780EC90E0918B808B81EC90E0938B0C
:1009E000828B82EC90E0958B848B86EC90E0978BE9
:1009F000868B118E128E138E148E87ED91E01092DD
:100A000018021092170290931B0280931A0220E49E
:100A100030E030931D0220931C0210921E021092AF
:100A20001F021092210210922002109222021092B4
:100A30002402109223021092260210922502109294
:100A400028021092270210922A0210922902109274
:100A50002C0210922B0210922E0210922D02109254
:100A6000300210922F02109236021092350210922C
:100A700038021092370210923A0210923902109204
:100A80003C0210923B0210924A02109249021092CC
:100A900019021092570210925902109258021092A5
:100AA0009C022CE830E030933E0220933D022DE87A
:100AB00030E03093400220933F022EE830E0309344
:100AC0004202209341022FE830E030934402209309
:100AD000430220E930E0309346022093450221E9A9
:100AE00030E0309348022093470222E930E030930F
:100AF0004C0220934B0223E930E030934E022093C6
:100B00004D0229ED33E03093500220934F02909331
:100B100032028093310225E532E030935202209375
:100B2000510290933402809333028EE990E09093C7
:100B30005402809353020895789484B5826084BDF2
:100B400084B5816084BD85B5826085BD85B58160D1
:100B500085BD80916E00816080936E00109281004F
:100B6000809181008260809381008091810081600A
:100B700080938100809180008160809380008091CB
:100B8000B10084608093B1008091B0008160809357
:100B9000B00080917A00846080937A0080917A001E
:100BA000826080937A0080917A00816080937A00DD
:100BB00080917A00806880937A001092C10012E0E0
:100BC00010932C0181E080932B0110922A0188E080
:100BD0008093570280915802909159020E94C10956
:100BE000C0915702D0E0CE0101960E942509909352
:100BF000590280935802FC01EC0FFD1F1082DC01AA
:100C00001C9311961C92AE01425051096CE171E0A7
:100C100002960E944A0A8FED93E0909329018093F7
:100C20002801E0914A01F0914B011083E0914A01C3
:100C3000F0914B011082E0914601F0914701108242
:100C4000E0914801F091490180E1808310925201C6
:100C5000E0914E01F0914F0186E08083E0914C01DC
:100C6000F0914D01808180618083E0914C01F09191
:100C70004D01808188608083E0914C01F0914D01AD
:100C8000808180688083E0914C01F0914D018081EA
:100C90008F7D808380919C0281114EC08DE00E94E7
:100CA000380162ED70E080E090E00E94220261E095
:100CB0008DE00E94CF0168E270E080E090E00E9449
:100CC000220260E08DE00E94CF0162ED70E080E0E2
:100CD00090E00E94220261E08DE00E94CF0168E274
:100CE00070E080E090E00E94220260E08DE00E94CF
:100CF000CF016AEF70E080E090E00E942202C5E040
:100D000062ED70E080E090E00E94220261E08DE000
:100D10000E94CF0168E270E080E090E00E94220231
:100D200060E08DE00E94CF01C15051F76DE770E0A7
:100D300080E090E00E9422028AE391E090935602C4
:100D400080935502909318028093170287E192E0F6
:100D50000E940E0187ED91E00E94690381E10E94EB
:100D6000380161E081E10E94CF012FB7F8948091B2
:100D7000320190913301A0913401B09135012FBF20
:100D800088519C4FAF4FBF4F80932D0190932E0100
:100D9000A0932F01B093300177247394C3E8D0E07F
:100DA0000FEB10E09BEAE92E90E0F92E20E0C22E36
:100DB00020E0D22E32E0A32EB12C88248394912CF3
:100DC0008091550290915602DC01ED91FC910084D6
:100DD000F185E02D0995892B09F4CEC1809155024A
:100DE00090915602DC01ED91FC910284F385E02D97
:100DF00009959C018F3F980719F3982F8091220243
:100E0000882309F492C0973F09F07EC01092220215
:100E1000A0911A02B0911B026C916137C1F1693740
:100E200009F05CC0E0914F02F0915002309741F21E
:100E300080912302909124028330910560F430E088
:100E400020E050E040E070E060E08091310290915D
:100E500032020995B5CFBD016D5F7F4F03970E94A8
:100E60008701BC016D5F7F4F80E00E945701E091D8
:100E70001A02F0911B029F012D5F3F4F428150E00B
:100E8000618170E0E0914F02F0915002DECF8091DD
:100E90004B0290914C02892B09F492CFBD016F5FF8
:100EA0007F4F809123029091240201970E94870135
:100EB000BC016F5F7F4F80E00E94570160911A0272
:100EC00070911B026F5F7F4FE0914B02F0914C02DB
:100ED0008091370290913802099572CFE0914D02CE
:100EE000F0914E02309709F46BCF9D012F5F3F4F79
:100EF00040912302509124024150510980913902BE
:100F000090913A0209955CCF60912302709124027E
:100F1000822F0E9457018091230290912402019612
:100F200090932402809323024BCF60912002709112
:100F300021026115710509F4B1C027FDAFC06150F0
:100F400071097093210260932002822F0E94570141
:100F50008091200290912102892B09F031CF80915C
:100F60001E02882309F42CCF803D09F483C040F48D
:100F7000803949F1803C09F469C010921E0220CFEB
:100F8000843FE1F1853F09F44DC0803EB1F7E09127
:100F90003D02F0913E02309781F3A0911A02B09188
:100FA0001B024C9120E8429FC001112411964C91E4
:100FB000480F592F511D60911F0280912502909179
:100FC00026020995DACFE0913F02F0914002309776
:100FD000A1F2A0911A02B0911B024C9120E8429F0D
:100FE000C001112411964C91480F592F511D609149
:100FF0001F028091270290912802E3CFE0914502E1
:10100000F0914602309709F4B8CFA0911A02B0913E
:101010001B024C9150E011966C9180912D029091A1
:101020002E02CFCFE0914702F0914802309709F4A9
:10103000A4CFA0911A02B0911B024C9150E01196DE
:101040006C9180912F0290913002BBCFE0914102D0
:10105000F0914202309709F490CFA0911A02B0911A
:101060001B024C9150E060911F02809129029091E7
:101070002A02A7CFE0914302F0914402309709F48D
:101080007CCFA0911A02B0911B024C9150E060916C
:101090001F0280912B0290912C0293CF903F30F44D
:1010A000822F8F7080931F02922F907F903FF1F1DB
:1010B00090F4903CB1F150F4903909F081CEB092A7
:1010C0002102A092200290931E027ACE903D49F117
:1010D000903EA9F375CE993F09F442C028F48CE004
:1010E000890F823060F36CCE9F3F09F069CE109279
:1010F00021021092200210921E0210921F0290E014
:1011000080E020911C0230911D0282179307A8F401
:10111000E0911A02F0911B02E80FF91F108201966C
:10112000F0CF9092210280922002CDCF70922202C5
:10113000109224021092230243CE109222021092A7
:10114000240210922302E0915302F0915402809104
:101150003B0290913C02309709F432CE099530CE93
:10116000E0915102F0915202309709F429CE80911A
:10117000330290913402F2CF80912D0190912E0193
:10118000A0912F01B09130012FB7F8944091320116
:101190005091330160913401709135012FBF481790
:1011A00059076A077B0790F0481B590B6A0B7B0BAA
:1011B00077FF12C0C114D10409F402CE0E94C60206
:1011C000882309F4FDCD0E940000FACD841B950B05
:1011D000A60BB70BB7FFEECFFE018491F801649028
:1011E000F7015490552079F081110E94A601E52D58
:1011F000F0E0EE0FFF1FE859FF4FA591B4918C91DD
:10120000682260E009F461E081E10E94CF012FB71C
:10121000F8948091320190913301A0913401B09102
:1012200035012FBF88519C4FAF4FBF4F80932D0189
:1012300090932E01A0932F01B0933001BBCFEE0FFE
:10124000FF1F0590F491E02D09940F931F93CF9306
:10125000DF938230910510F482E090E0E0919F02EC
:10126000F091A00230E020E0B0E0A0E0309799F4E7
:101270002115310509F44AC0281B390B24303105EA
:10128000D8F58A819B816115710589F1FB019383F2
:101290008283FE0111C04081518102811381481770
:1012A0005907E0F04817590799F4109761F0129622
:1012B0000C93129713961C933296CF01DF91CF9126
:1012C0001F910F91089500939F021093A002F4CFF5
:1012D0002115310551F04217530738F0A901DB0100
:1012E0009A01BD01DF01F801C1CFEF01F9CF909361
:1012F000A00280939F02CDCFFE01E20FF31F8193E6
:1013000091932250310939832883D7CF20919D02B0
:1013100030919E02232B41F4209102013091030170
:1013200030939E0220939D02209100013091010193
:101330002115310541F42DB73EB74091040150917C
:101340000501241B350BE0919D02F0919E02E217EE
:10135000F307A0F42E1B3F0B2817390778F0AC01D8
:101360004E5F5F4F2417350748F04E0F5F1F5093B5
:101370009E0240939D02819391939FCFF0E0E0E025
:101380009CCFCF93DF930097E9F0FC013297138253
:101390001282A0919F02B091A002ED0130E020E006
:1013A0001097A1F420813181820F931F20919D021B
:1013B00030919E022817390709F061C0F0939E0210
:1013C000E0939D02DF91CF910895EA01CE17DF07E8
:1013D000E8F54A815B819E0141155105B1F7E901AC
:1013E000FB83EA8349915991C40FD51FEC17FD0780
:1013F00061F4808191810296840F951FE9019983A0
:101400008883828193819B838A83F0E0E0E0129657
:101410008D919C9113970097B9F52D913C9111975F
:10142000CD010296820F931F20919D0230919E0262
:101430002817390739F6309751F51092A00210920B
:101440009F02B0939E02A0939D02BCCFD383C28320
:1014500040815181840F951FC817D90761F44E5FF1
:101460005F4F88819981480F591F518340838A813A
:101470009B81938382832115310509F0B0CFF093CE
:10148000A002E0939F029ECFFD01DC01C0CF13823A
:101490001282D7CFFB01DC014150504048F001904F
:1014A0000D920020C9F701C01D9241505040E0F755
:0614B0000895F894FFCF3F
:1014B6000000A102800000000000FC025C0289021C
:1014C6004903BA029802AC027372635C536572698F
:0814D600616C2E6370700000D0
:00000001FF
