:100000000C9462000C948A000C948A000C948A0070
:100010000C948A000C948A000C948A000C948A0038
:100020000C948A000C948A000C948A000C948A0028
:100030000C948A000C946E090C948A000C948A002B
:100040000C94B1070C948A000C9421080C94FB07C3
:100050000C948A000C948A000C948A000C948A00F8
:100060000C9453080C948A00000000002300260022
:10007000290000000000240027002A0000000000E2
:10008000250028002B0004040404040404040202D4
:100090000202020203030303030301020408102007
:1000A0004080010204081020010204081020000012
:1000B0000008000201000003040700000000000027
:1000C0000000780911241FBECFEFD8E0DEBFCDBFFE
:1000D00011E0A0E0B1E0E8E7F9E202C005900D927E
:1000E000AC32B107D9F723E0ACE2B1E001C01D9218
:1000F000A83BB207E1F710E0C2E6D0E004C02197C8
:10010000FE010E941812C136D107C9F70E94500A99
:100110000C94BA140C94000008950895089508955D
:10012000089508950895862F642FE0919D01F09120
:100130009E01309711F0A9010994089508958091C6
:100140003C0390913D03892BB1F080913E03909147
:100150003F03892B81F08091400390914103892BCB
:1001600051F081E02091360330913703232B09F0C1
:1001700080E0819508958FEF08950F931F93CF939B
:10018000DF938C01EB01DC018D919C9168816F778D
:10019000DC01ED91FC910190F081E02D0995F801D1
:1001A00080819181688170E0660F672F661F770BF1
:1001B000DC01ED91FC910190F081E02DDF91CF9178
:1001C0001F910F910994EF92FF920F931F93CF937A
:1001D000DF93C82F80919502909196020097A9F124
:1001E0007A018B01DC01ED91FC910190F081E02D11
:1001F00060EF09958091950290919602DC01ED9156
:10020000FC910190F081E02D6C2F0995E7010E0D16
:100210001F1DC017D10739F0BE0185E992E00E9489
:10022000BD002196F6CF8091950290919602DC0157
:10023000ED91FC910190F081E02D67EFDF91CF917E
:100240001F910F91FF90EF900994DF91CF911F9133
:100250000F91FF90EF900895CF93DF93FC01A08161
:10026000B181109701F1EC01ED91FC911197019092
:10027000F081E02D69EFCD01099588819981DC013C
:10028000ED91FC910190F081E02D62E0099588816B
:100290009981DC01ED91FC910190F081E02D65E008
:1002A000DF91CF910994DF91CF9108951F93CF9360
:1002B000DF93182FEB0180919A0290919B026817AF
:1002C000790760F48091980290919902C80FD91F24
:1002D000188380E0DF91CF911F910895E091C702CC
:1002E000F091C802309711F481E0F4CF81E080935F
:1002F00097028091B3029091B402099580919A027D
:1003000090919B02C817D90778F7DCCFCF93DF9382
:10031000EC01FB0130E020E0C901880F991F8C1728
:100320009D0778F44081DB014D93BD0111979181C8
:10033000979599279795942B9C932F5F3F4F3296D3
:10034000EBCFC901DF91CF910895833081F028F47C
:10035000813099F08230A9F008958730A9F0883073
:10036000C9F08430B1F4809180008F7D03C080910A
:1003700080008F7780938000089584B58F7784BD47
:10038000089584B58F7DFBCF8091B0008F778093E7
:10039000B00008958091B0008F7DF9CF1F93CF9367
:1003A000DF93282F30E0F901E255FF4F8491F901E6
:1003B000E656FF4FD491F901EA57FF4FC491CC2381
:1003C000A9F0162F81110E94A501EC2FF0E0EE0F8D
:1003D000FF1FE458FF4FA591B4918FB7F894EC91AB
:1003E000111108C0D095DE23DC938FBFDF91CF9130
:1003F0001F910895DE2BF8CFCF93DF9390E0FC019F
:10040000E656FF4F24918A579F4FFC018491882321
:10041000D1F090E0880F991FFC01EE58FF4FA59195
:10042000B491FC01E458FF4FC591D49161110EC005
:100430009FB7F8948C91E22FE0958E238C932881BE
:10044000E223E8839FBFDF91CF9108958FB7F8949F
:10045000EC91E22BEC938FBFF6CF8230910538F010
:10046000880F991F880F991F05970197F1F7089535
:100470003FB7F8948091B4019091B501A091B60175
:10048000B091B70126B5A89B05C02F3F19F0019682
:10049000A11DB11D3FBFBA2FA92F982F8827BC01DE
:1004A000CD01620F711D811D911D42E0660F771F06
:1004B000881F991F4A95D1F708958F929F92AF9206
:1004C000BF92CF92DF92EF92FF926B017C010E946C
:1004D00038024B015C01C114D104E104F104B9F00C
:1004E0000E943802681979098A099B09683E73409D
:1004F0008105910580F321E0C21AD108E108F108D5
:1005000088EE880E83E0981EA11CB11CE4CFFF90FA
:10051000EF90DF90CF90BF90AF909F908F90089515
:100520002FB7F8946091B0017091B1018091B20140
:100530009091B3012FBF0895CB010C942D02009729
:1005400021F0805C9F4F0C942C010895AF92BF92D4
:10055000CF92DF92EF92FF920F931F93CF93DF938F
:100560006C017B018B01040F151FEB015E01AE18BE
:10057000BF08C017D10759F06991D601ED91FC91E0
:100580000190F081E02DC6010995892B79F7C5010D
:10059000DF91CF911F910F91FF90EF90DF90CF905F
:1005A000BF90AF900895FC01538D448D252F30E00E
:1005B000842F90E0821B930B541710F0CF96089570
:1005C00001970895FC01918D828D981761F0A28D9D
:1005D000AE0FBF2FB11D5D968C91928D9F5F9F7363
:1005E000928F90E008958FEF9FEF0895FC01918D19
:1005F000828D981731F0828DE80FF11D858D90E086
:1006000008958FEF9FEF0895FC01918D228D892F22
:1006100090E0805C9F4F821B91098F73992708950A
:1006200088EB91E00E94040321E0892B09F420E08B
:10063000822F089580E090E0892B29F00E9410031A
:1006400081110C9400000895FC01A48DA80FB92F0E
:10065000B11DA35ABF4F2C91848D90E001968F73EA
:100660009927848FA689B7892C93A089B1898C9109
:10067000837080648C93938D848D981306C0028858
:10068000F389E02D80818F7D80830895EF92FF9222
:100690000F931F93CF93DF93EC0181E0888F9B8DA5
:1006A0008C8D98131AC0E889F989808185FF15C05F
:1006B0009FB7F894EE89FF896083E889F989808182
:1006C0008370806480839FBF81E090E0DF91CF9151
:1006D0001F910F91FF90EF900895F62E0B8D10E073
:1006E0000F5F1F4F0F731127E02E8C8D8E110CC0E2
:1006F0000FB607FCFACFE889F989808185FFF5CF2D
:10070000CE010E942403F1CFEB8DEC0FFD2FF11DE4
:10071000E35AFF4FF0829FB7F8940B8FEA89FB8969
:1007200080818062CFCFCF93DF93EC01888D8823C7
:10073000B9F0AA89BB89E889F9898C9185FD03C044
:10074000808186FD0DC00FB607FCF7CF8C9185FF29
:10075000F2CF808185FFEDCFCE010E942403E9CF47
:10076000DF91CF91089520915301260F3327331F36
:1007700021323105ECF420917701FC0190E080E01A
:10078000243069F082E00895A09153012191AC01D9
:100790004D5C5E4FA40FB52FB11D2C9301968617AB
:1007A00098F380915301680F6093530180E008959E
:1007B00081E0089508958FEF9FEF08958FEF9FEFE9
:1007C000089580912C0190E091958195910908956B
:1007D000CF93DF93CB01EA01642F0E94B303CE01D4
:1007E000DF91CF910895CF93DF931F92CDB7DEB7FE
:1007F000698361E0CE0101960E94B30381E090E03D
:100800000F90DF91CF91089590E080E00895CF920E
:10081000DF92EF92FF920F931F93CF93DF93FC0130
:10082000E058FF4FE080EE2009F458C0EC01C05CB6
:10083000DF4FA881B981109709F450C0FC01EF5730
:10084000FF4FC080D180F60111810081ED91FC91B4
:1008500011970190F081E02D60EFCD01099588811D
:100860009981DC01ED91FC910190F081E02D69E727
:10087000099588819981DC01ED91FC910190F081CD
:10088000E02D602F099588819981DC01ED91FC9123
:100890000190F081E02D612F0995F12C01E010E02D
:1008A0000F5F1F4FE016F10639F0B601600F711FA0
:1008B000CE010E94BD00F4CF88819981DC01ED91C9
:1008C000FC910190F081E02D67EFDF91CF911F91B6
:1008D0000F91FF90EF90DF90CF900994DF91CF912F
:1008E0001F910F91FF90EF90DF90CF9008950097A8
:1008F00011F00C94070408950895CF93DF9300D06E
:10090000CDB7DEB789839A83AE014F5F5F4F62E058
:1009100070E083E00E94E3000F900F90DF91CF9191
:100920000895FC0183858F3F19F061E00C94CE019E
:100930000895FC0180819181892B39F0A281B381D6
:100940009C9111968C919CBD8DBD83858F3F19F034
:1009500060E00C94CE010895AF92BF92CF92DF92E7
:10096000EF92FF920F931F93CF93DF93EC01888157
:100970009981892B89F06EBD0DB407FEFDCFBEB401
:100980008B2DDF91CF911F910F91FF90EF90DF9012
:10099000CF90BF90AF9008958885998511E0892BFD
:1009A00009F010E8AA24A394862F812309F0A12C32
:1009B000062F2C813D814E815F8160E271EA87E0E4
:1009C00090E00E94E711F22EB02EE12CC22ED12C25
:1009D000FF2019F0C6010E942D028A85877F09F049
:1009E00042C08D858F3F89F0902F912381E009F4DB
:1009F00080E08A1551F0EF85F8898F89992369F194
:100A00009081892B8083AA24A394E989FA89808123
:100A1000998D892B8083FF2019F0C6010E942D0239
:100A20008E858F3F39F0EB89FC898081988D8923F1
:100A300009F0E12AE989FA899081898D80958923D5
:100A400080838E858F3F09F0BE2C88859985892B00
:100A5000B9F5110F1111BCCF93CF908180958923E7
:100A60008083A12CD2CFE989FA898081998D892B45
:100A70008083FF2019F0C6010E942D028D858F3FD3
:100A800049F0EF85F8898F89902F9123A9F0908103
:100A9000892B8083E989FA899081898D80958923C2
:100AA00080838E858F3F69F2EB89FC898081988DE8
:100AB000892339F2E12AC5CF908180958923E9CF36
:100AC0001695C8CFCF92DF92EF92FF920F931F93AC
:100AD000CF93DF93182F6B01C091A301D091A40194
:100AE0007901CE010E949904612FCE010E94AC04CD
:100AF0008601C8018C199D098E159F0538F4F801EF
:100B000061918F01CE010E94AC04F3CFCE010E940F
:100B1000910480E0DF91CF911F910F91FF90EF90B2
:100B2000DF90CF900895CF92DF92EF92FF920F93D4
:100B30001F93CF93DF93182F7B01C091A301D09116
:100B4000A4016901CE010E949904612FCE010E9487
:100B5000AC048701C8018E199F098C159D0540F4CE
:100B60006FEFCE010E94AC04F80181938F01F2CFA8
:100B7000CE010E94910480E0DF91CF911F910F91EF
:100B8000FF90EF90DF90CF9008953F924F925F9249
:100B90006F927F928F929F92AF92BF92CF92DF928D
:100BA000EF92FF920F931F93CF93DF93CDB7DEB7F2
:100BB000382E4B0129013A01CDB6DEB60E949F00C6
:100BC00081116FC0ADB6BEB680913B03A301920107
:100BD000280F311D411D511D8DB79EB7821B930BF0
:100BE0000FB6F8949EBF0FBE8DBFEDB7FEB731961E
:100BF0007F01E0913C03F0913D0300913603109199
:100C000037038091380390913903019709F441C06B
:100C1000B701832D8068099580933A03840180E0B1
:100C200090E0DC0120913B03AC01BD01420F511D5E
:100C3000611D711D4E0D5F1DFA012081F801219388
:100C40008F010196A11DB11D481659066A067B0643
:100C500049F780913A03811189EF0FB6F894BEBE2F
:100C60000FBEADBE0FB6F894DEBE0FBECDBEDF9197
:100C7000CF911F910F91FF90EF90DF90CF90BF9099
:100C8000AF909F908F907F906F905F904F903F902C
:100C90000895A3019201B401832D099580933A032D
:100CA000D8CF8FEFDFCF0F931F93CF93DF9300D079
:100CB0001F92CDB7DEB70E949F00811114C021E0C2
:100CC00030E040E050E0BE016D5F7F4F83E00E9466
:100CD000C5059B8194FF40C081113EC00E949F00CA
:100CE000882349F08FEF0F900F900F90DF91CF91F5
:100CF0001F910F91089586EB89830091360310911F
:100D00003703E0913E03F0913F0321E030E040E003
:100D100050E0BE016F5F7F4F8EE7099580933A03E5
:100D200081111CC04091360350913703E09140037C
:100D3000F091410360ED77E080E090E0099521E0DB
:100D400030E040E050E0BE016F5F7F4F82E00E94E4
:100D5000C50599819E7721F08CEFC5CF89EFC3CF70
:100D6000882309F4C0CFF8CFEF92FF920F931F931F
:100D7000CF93DF93CDB7DEB728970FB6F894DEBFD9
:100D80000FBECDBF182F062F7A01863009F45FC041
:100D9000B8F4823061F18430D9F1602F70E0A7019E
:100DA000812F0E94E30028960FB6F894DEBF0FBE95
:100DB000CDBFDF91CF911F910F91FF90EF900895DC
:100DC000873009F456C0803F41F78091A1018983A3
:100DD0008091A0018A8380919F018B83AE014F5F38
:100DE0005F4F63E070E081EF0E94E300D6CF0E9486
:100DF0005D1128EE33E040E050E00E94B511DC01C7
:100E0000CB018850954DAF4FBF4F0E947D04C5CF99
:100E10000E945D1120ED37E040E050E00E94B511E6
:100E20000E948D1220E23CE541EC57E40E941F1223
:100E30006D837E838F83988769837A838B839C837A
:100E4000AE014F5F5F4F64E070E085E0CDCF81E0A1
:100E50008093AE010E9490026C597F4F8F4F9F4F3D
:100E60006093AA017093AB018093AC019093AD01A4
:100E700094CF1092AE0191CF1F93CF93DF9385ED66
:100E80008093BC0080912F0190913001A09131019D
:100E9000B09132010796A11DB11D23E0B695A7952B
:100EA000979587952A95D1F72091BC0024FD03C022
:100EB0001092770152C040912F0150913001609102
:100EC000310170913201452B462B472B69F3009776
:100ED000A105B10541F025E32A95F1F7000001973E
:100EE000A109B109E1CF80912E01C1E0C0932D018C
:100EF000882399F1D091B8001091BA008091BC007C
:100F00008A7B8093BC0060E082E10E94CE0160E0B9
:100F100083E10E94CE0110927701C0937901109273
:100F2000780161E082E10E94CE0161E083E10E94EC
:100F3000CE018091B9008E7F8093B9008091B90075
:100F40008D7F8093B90088E48093B80085E4809316
:100F5000BC001093BA00D093B800DF91CF911F91DD
:100F600008951F920F920FB60F9211242F933F9363
:100F70008F939F93AF93BF938091B0019091B101F4
:100F8000A091B201B091B3013091AF0123E0230FE2
:100F90002D3758F50196A11DB11D2093AF01809307
:100FA000B0019093B101A093B201B093B3018091CD
:100FB000B4019091B501A091B601B091B70101962D
:100FC000A11DB11D8093B4019093B501A093B6010A
:100FD000B093B701BF91AF919F918F913F912F91A6
:100FE0000F900FBE0F901F90189526E8230F0296C2
:100FF000A11DB11DD2CF1F920F920FB60F921124D7
:101000002F933F934F935F936F937F938F939F9310
:10101000AF93BF93EF93FF9388EB91E00E9424037B
:10102000FF91EF91BF91AF919F918F917F916F91C0
:101030005F914F913F912F910F900FBE0F901F9096
:1010400018951F920F920FB60F9211242F938F9322
:101050009F93EF93FF93E091C801F091C9018081C4
:10106000E091CE01F091CF0182FD1BC09081809173
:10107000D1018F5F8F732091D201821741F0E091EF
:10108000D101F0E0E854FE4F958F8093D101FF919C
:10109000EF919F918F912F910F900FBE0F901F9006
:1010A00018958081F4CF1F920F920FB60F921124E2
:1010B0002F933F934F935F936F937F938F939F9360
:1010C000AF93BF93EF93FF938091B900887F8036F1
:1010D00009F44AC0F0F5883209F4A5C018F580314A
:1010E00009F499C0B8F4882309F4F5C0883009F4EC
:1010F00092C0FF91EF91BF91AF919F918F917F919E
:101100006F915F914F913F912F910F900FBE0F9074
:101110001F901895883109F486C0803251F780936A
:10112000760114C0803409F49BC040F48033B9F3D5
:101130008833F9F68093760185ECAEC0803509F4EA
:1011400083C0883509F494C0883499F60E943C071E
:10115000D0CF883909F48AC038F5883729F050F49F
:10116000883611F0803729F683E08093770110925A
:10117000750155C0883809F479C0803919F0803874
:1011800009F0B7CF80917501803208F06FC0E0910F
:10119000750181E08E0F809375018091BB00F0E0B6
:1011A000EB5AFE4F80833BC0803B39F0D0F4803A4D
:1011B00009F477C0883A09F09CCF84E080937701E6
:1011C0001092540110925301F0E0E0E009958091F3
:1011D000530181110FC081E08093530110923301BC
:1011E00009C0803C09F4A8CF883C09F4A5CF883B0E
:1011F00009F07FCFE091540181E08E0F809354017C
:10120000F0E0ED5CFE4F80818093BB009091540133
:101210008091530129C080919C018093BB0085EC93
:101220008093BC0066CF90919B0180919A019817A2
:1012300058F5E0919B0181E08E0F80939B01F0E0D7
:10124000E658FE4F8081E9CFE0919B0181E08E0F4F
:1012500080939B018091BB00F0E0E658FE4F8083B5
:1012600090919B0180919A019817C8F285E8D8CF98
:10127000E0919B0181E08E0F80939B018091BB00E8
:10128000F0E0E658FE4F80838091790181115ECFB6
:1012900081E08093780184EA8093BC00109277010A
:1012A00028CF85EC8093BC00109277018091750166
:1012B000803230F4E0917501F0E0EB5AFE4F10827D
:1012C0006091750170E085E591E0F0E0E0E009955E
:1012D000109275010ECF1092760138CF1F920F92A7
:1012E0000FB60F9211240F900FBE0F901F901895FC
:1012F000E8EBF1E01382128288EE93E0A0E0B0E028
:1013000084839583A683B7838EE091E09183808365
:1013100085EC90E09587848784EC90E097878687BA
:1013200080EC90E0918B808B81EC90E0938B828BB2
:1013300082EC90E0958B848B86EC90E0978B868B8B
:10134000118E128E138E148E85E592E01092960205
:1013500010929502909399028093980220E430E0D5
:1013600030939B0220939A0210929C0210929D024D
:1013700010929F0210929E021092A0021092A2025E
:101380001092A1021092A4021092A3021092A6023F
:101390001092A5021092A8021092A7021092AA021F
:1013A0001092A9021092AC021092AB021092AE02FF
:1013B0001092AD021092B4021092B3021092B602D3
:1013C0001092B5021092B8021092B7021092BA02AF
:1013D0001092B9021092C8021092C702109297029E
:1013E0001092D5021092D7021092D60210921A03D0
:1013F0002CE830E03093BC022093BB022DE830E0B3
:101400003093BE022093BD022EE830E03093C0023C
:101410002093BF022FE830E03093C2022093C10234
:1014200020E930E03093C4022093C30221E930E088
:101430003093C6022093C50222E930E03093CA02FD
:101440002093C90223E930E03093CC022093CB02F1
:1014500027E734E03093CE022093CD029093B00280
:101460008093AF022FE932E03093D0022093CF0275
:101470009093B2028093B1028EE990E09093D202F1
:101480008093D102EBE1F3E0118610861386128679
:10149000168A178A108E118E168615861486089560
:1014A000CF93DF93CDB7DEB769970FB6F894DEBF61
:1014B0000FBECDBF789484B5826084BD84B5816051
:1014C00084BD85B5826085BD85B5816085BD80910F
:1014D0006E00816080936E00109281008091810087
:1014E000826080938100809181008160809381007F
:1014F000809180008160809380008091B100846041
:101500008093B1008091B00081608093B0008091A1
:101510007A00846080937A0080917A008260809360
:101520007A0080917A00816080937A0080917A00BD
:10153000806880937A001092C10052E0F52EF092FC
:10154000A10181E08093A00110929F0188E0809327
:10155000D5028091D6029091D7020E942214009168
:10156000D50210E0C80101960E9486139093D7021D
:101570008093D602FC01E00FF11F1082DC01FC9287
:1015800011961C92A8014250510960E271E0029646
:101590000E94AB1484EB96E090939E0180939D0192
:1015A000E091C801F091C901F082E091C801F09189
:1015B000C9011082E091C401F091C5011082E0914F
:1015C000C601F091C70180E180831092D001E091C3
:1015D000CC01F091CD0186E08083E091CA01F091C9
:1015E000CB01808180618083E091CA01F091CB01C1
:1015F000808188608083E091CA01F091CB01808175
:1016000080688083E091CA01F091CB0180818F7D59
:10161000808380911A0381114FC061E08DE00E94A8
:10162000FC0162ED70E080E090E00E945D0261E00C
:101630008DE00E94CE0168E270E080E090E00E94C0
:101640005D0260E08DE00E94CE0162ED70E080E01E
:1016500090E00E945D0261E08DE00E94CE0168E2B0
:1016600070E080E090E00E945D0260E08DE00E940A
:10167000CE016AEF70E080E090E00E945D0215E02C
:1016800062ED70E080E090E00E945D0261E08DE03C
:101690000E94CE0168E270E080E090E00E945D026E
:1016A00060E08DE00E94CE01115051F76DE770E0CF
:1016B00080E090E00E945D0288EB91E09093D4027C
:1016C0008093D302909396028093950285E992E0ED
:1016D0000E942C0185E592E00E94070461E081E10F
:1016E0000E94FC0161E081E10E94CE0186E48093CA
:1016F0007C0080917A00806480937A0080917A00E7
:1017000086FDFCCF8091780060917900762F682F5C
:10171000072E000C880B990B611571058105910549
:1017200011F00E94AC111092AE01809123039091B0
:101730002403009711F00E942214009125031091B8
:1017400026030115110551F0F8018281938100975C
:1017500011F00E942214C8010E9422141092240346
:10176000109223038CE190E00E9486138C0188E0A4
:10177000D8011B968C931B978FEF1E968C931E9708
:101780001D968C931D971C968C931C9785EA91E06F
:1017900011969C938E935B961C9282E090E00E943F
:1017A000861321E5FC0120831182D80113969C93B6
:1017B0008E93129780E492E4AFE0B0E0F801848366
:1017C0009583A683B78381E090E091878087128616
:1017D00010932603009325031093A4010093A30103
:1017E00061E088E00E94FC0161E0D8011B968C91C9
:1017F0000E94CE01F80180819181892B09F4A5C254
:10180000FFB6F8948091A201811127C0E0E9F0E0D1
:101810008491E4EAF0E09491E82FF0E0EE0FFF1FEE
:10182000EE58FF4FA591B491EC91E92321F461E0CA
:101830008AE00E94CE0161E08AE00E94FC018CB542
:1018400080618CBD8CB580648CBD61E08DE00E94B0
:10185000FC0161E08BE00E94FC018091A2018F5F9E
:101860008093A201FFBEFF24F394D8015B96FC9203
:1018700088E080933503109239031092380383E98E
:1018800095E090933D0380933C0382E695E090932E
:101890003F0380933E038091A3019091A401909314
:1018A000370380933603F0923B0380912503909198
:1018B00026039093A4018093A3018CE992E0909376
:1018C0004103809340030E9453068111D3C11E8AB5
:1018D0000E949F008E010F5F1F4F811186C1809172
:1018E000380390913903019709F454C2F0923B03F5
:1018F00021E030E040E050E0BE016A5E7F4F80E0D2
:101900000E94C505811171C18E89803519F080361C
:1019100009F06BC1809335030E945306811165C1A4
:1019200085E1F80111928A95E9F725E130E040E080
:1019300050E0B80181E30E94C50569817A81709306
:101940007F0360937E0390E080E00E948B1220E092
:1019500030E040E853E40E9419136093420370930F
:10196000430380934403909345036B817C81709380
:1019700081036093800390E080E00E948B1220E05E
:1019800030E040E850E30E941913609346037093DF
:10199000470380934803909349036D8160938203CA
:1019A000062E000C770B880B990B0E948D1220E0FD
:1019B00030E040E857E20E94191360934A037093A5
:1019C0004B0380934C0390934D036E817F81709302
:1019D0008403609383037054072E000C880B990BCB
:1019E0000E948D1220E030E040E855E30E94191378
:1019F00060934E0370934F03809350039093510371
:101A00006885798570938603609385037054072EEB
:101A1000000C880B990B0E948D1220E030E040E012
:101A200051E30E9419136093520370935303809300
:101A30005403909355036A8560938703062E000C28
:101A4000770B880B990B0E948D1220E030E040E864
:101A50005FE20E94191360935603709357038093BB
:101A60005803909359036B8560938803062E000CEE
:101A7000770B880B990B0E948D1220E030E040E03C
:101A80005DE20E94191360935A0370935B03809385
:101A90005C0390935D036C857D8570938A036093EE
:101AA000890390E080E00E948B1220E030E040E06B
:101AB00051E40E94191360935E0370935F03809357
:101AC0006003909361036E857F8570938C036093B0
:101AD0008B0390E080E00E948B1220E030E040E831
:101AE0005CE30E9419136093620370936303809315
:101AF000640390936503688960938D03062E000C40
:101B0000770B880B990B0E948D1220E030E040E8A3
:101B10005BE30E94191360936603709367038093DD
:101B2000680390936903698960938E03062E000C05
:101B3000770B880B990B0E948D1220E030E040E07B
:101B400058E30E94191360936A0370936B038093A8
:101B50006C0390936D036A897B8970939003609303
:101B60008F03072E000C880B990B0E948D1220E02A
:101B700030E040E857E20E94191360936E037093BF
:101B80006F0380937003909371036C89609391034A
:101B9000062E000C770B880B990B0E948D1220E00B
:101BA00030E040E857E20E9419136093720370938B
:101BB000730380937403909375036D89609392030C
:101BC000062E000C770B880B990B0E948D1220E0DB
:101BD00030E040E05FE10E94191360937603709358
:101BE0007703809378039093790325E130E040E018
:101BF00050E0B80181E30E94C50581113BC0B801E6
:101C0000AE014A5E5F4F1FEF3DE1DB012D91BD014B
:101C100098E0812F8227881F8827881F110F220FA5
:101C2000839F802D11241827915099F76417750709
:101C300061F721E030E040E050E080E30E94C5051C
:101C400010959E89191316C0811114C010929F031C
:101C50001092280310929E03109229031092A00361
:101C60001092270383E08093A10381E080932A03ED
:101C700080939B030E94900268517C4F8F4F9F4F2F
:101C80006093A6017093A7018093A8019093A90186
:101C900090ED892E97E0992EA12CB12C28EE422EA2
:101CA00023E0522E612C712C32E0232E312C00E0E7
:101CB00010E08091D3029091D402DC01ED91FC916F
:101CC0000084F185E02D0995892B09F4FBC18091F1
:101CD000D3029091D402DC01ED91FC910284F38552
:101CE000E02D09959C018F3F980719F3982F80915B
:101CF000A002882309F4BBC0973F09F0A7C0109247
:101D0000A002A0919802B09199026C91613709F4F8
:101D100060C0693709F084C0E091CD02F091CE0235
:101D2000309739F28091A1029091A20283309105FF
:101D3000A0F530E020E050E040E070E060E080910D
:101D4000AF029091B0020995B4CF61E084850E9402
:101D5000FC01F80182858B7FD1F460E084850E94CC
:101D6000CE01F80185858F3F49F061E00E94FC01BA
:101D700061E0D8011D968C910E94CE01F801868504
:101D80008F3F09F470CD60E00E94FC016CCD61E0F2
:101D90008485E5CF10923B03ABCDBD016D5F7F4FD6
:101DA00003970E948601BC016D5F7F4F80E00E9417
:101DB0005601E0919802F09199029F012D5F3F4FEB
:101DC000428150E0618170E0E091CD02F091CE025D
:101DD000B6CF8091C9029091CA02892B09F469CFCC
:101DE000BD016F5F7F4F8091A1029091A202019788
:101DF0000E948601BC016F5F7F4F80E00E94560108
:101E000060919802709199026F5F7F4FE091C902D3
:101E1000F091CA028091B5029091B602099549CF1E
:101E2000E091CB02F091CC02309709F442CF9D01B2
:101E30002F5F3F4F4091A1025091A20241505109A2
:101E40008091B7029091B802099533CF6091A102B9
:101E50007091A202822F0E9456018091A10290915E
:101E6000A20201969093A2028093A10222CF6091D8
:101E70009E0270919F026115710509F4B1C027FDA2
:101E8000AFC06150710970939F0260939E02822FD0
:101E90000E94560180919E0290919F02892B09F029
:101EA00008CF80919C02882309F403CF803D09F478
:101EB00083C040F4803949F1803C09F469C0109234
:101EC0009C02F7CE843FE1F1853F09F44DC0803E8E
:101ED000B1F7E091BB02F091BC02309781F3A09181
:101EE0009802B09199024C9120E8429FC0011124C0
:101EF00011964C91480F592F511D60919D02809170
:101F0000A3029091A4020995DACFE091BD02F0916D
:101F1000BE023097A1F2A0919802B09199024C9123
:101F200030E8439FC001112411964C91480F592F5E
:101F3000511D60919D028091A5029091A602E3CF70
:101F4000E091C302F091C402309709F4B8CFA09198
:101F50009802B09199024C9150E011966C91809149
:101F6000AB029091AC02CFCFE091C502F091C602D6
:101F7000309709F4A4CFA0919802B09199024C91A6
:101F800050E011966C918091AD029091AE02BBCF62
:101F9000E091BF02F091C002309709F490CFA09178
:101FA0009802B09199024C9150E060919D0280910D
:101FB000A7029091A802A7CFE091C102F091C202BE
:101FC000309709F47CCFA0919802B09199024C917E
:101FD00050E060919D028091A9029091AA0293CF56
:101FE000903F30F4822F8F7080939D02922F907FCC
:101FF000903F09F440C090F4903CB1F150F4903916
:1020000009F057CE30929F0220929E0290939C023C
:1020100050CE903D49F1903EA9F34BCE993F09F443
:1020200045C028F48CE0890F823060F342CE9F3F98
:1020300009F03FCE10929F0210929E0210929C02D5
:1020400010929D0290E080E020919A0230919B02D4
:1020500082179307C0F4E0919802F0919902E80F7B
:10206000F91F10820196F0CFA1E0B0E0B0939F027B
:10207000A0939E02CBCFB1E0B093A0021092A20237
:102080001092A10216CE1092A0021092A2021092FB
:10209000A102E091D102F091D2028091B902909117
:1020A000BA02309709F405CE099503CEE091CF022C
:1020B000F091D002309709F4FCCD8091B10290915B
:1020C000B202F2CF8091AE018823A9F0C090AA019C
:1020D000D090AB01E090AC01F090AD010E94900275
:1020E0006C157D058E059F0540F16C197D098E09E3
:1020F0009F0997FF28C0C090A601D090A701E0904B
:10210000A801F090A9010E9490026C157D058E0532
:102110009F0508F453C06C197D098E099F0997FF2C
:1021200053C00115110509F4C4CD0E941003882382
:1021300009F4BDCD0E940000BACDC61AD70AE80A3C
:10214000F90AF7FED8CF0E945D11A50194010E9403
:10215000B5110E948D1220E23CE541EC57E40E944B
:102160001F126E8B7F8B888F998F69837A838B8305
:102170009C83AE014F5F5F4F64E070E085E00E949A
:10218000E3000E945D11A30192010E94B511DC01E0
:10219000CB018850954DAF4FBF4F0E947D040E94E8
:1021A00090026C597F4F8F4F9F4F6093AA0170939D
:1021B000AB018093AC019093AD019DCFC61AD70AB5
:1021C000E80AF90AF7FEADCFEFEBF0E08491EBEA15
:1021D000F0E0E490E7E9F0E0F490FF2079F081117D
:1021E0000E94A501EF2DF0E0EE0FFF1FE859FF4F11
:1021F000A591B4918C91E82260E009F461E081E15D
:102200000E94CE010E94900268517C4F8F4F9F4FD9
:102210006093A6017093A7018093A8019093A901F0
:1022200080CF8F929F92AF92BF92CF92DF92EF9228
:10223000FF92CF93DF93EC01688179818A819B8142
:10224000611571058105910521F464E279ED8BE555
:1022500097E02DE133EF41E050E00E94B5114901D4
:102260005A019B01AC01A7EAB1E40E94D4116B01B1
:102270007C01ACEEB4EFA50194010E94E211C60E00
:10228000D71EE81EF91EF7FE06C081E0C81AD10865
:10229000E10880E8F80AC882D982EA82FB82C70195
:1022A000B6019F77DF91CF91FF90EF90DF90CF90B5
:1022B000BF90AF909F908F9008958F929F92AF9212
:1022C000BF92CF92DF92EF92FF92609100017091E6
:1022D0000101809102019091030161157105810551
:1022E000910521F464E279ED8BE597E02DE133EF80
:1022F00041E050E00E94B51149015A019B01AC0137
:10230000A7EAB1E40E94D4116B017C01ACEEB4EFFA
:10231000A50194010E94E211C60ED71EE81EF91E07
:10232000F7FE06C081E0C81AD108E10880E8F80A83
:10233000C0920001D0920101E0920201F0920301EB
:10234000C701B6019F77FF90EF90DF90CF90BF90CD
:10235000AF909F908F90089560930001709301015A
:1023600080930201909303010895052E97FB1EF4BC
:1023700000940E94CC1157FD07D00E94E71107FC82
:1023800003D04EF40C94CC11509540953095219586
:102390003F4F4F4F5F4F0895909580957095619591
:1023A0007F4F8F4F9F4F08950E940912A59F900D58
:1023B000B49F900DA49F800D911D11240895B7FF27
:1023C0000C94D4110E94D411821B930B0895A1E2A6
:1023D0001A2EAA1BBB1BFD010DC0AA1FBB1FEE1F9F
:1023E000FF1FA217B307E407F50720F0A21BB30BEA
:1023F000E40BF50B661F771F881F991F1A9469F766
:1024000060957095809590959B01AC01BD01CF01C1
:102410000895A29FB001B39FC001A39F700D811DBD
:102420001124911DB29F700D811D1124911D0895DD
:10243000EE0FFF1F0590F491E02D09945058BB2733
:10244000AA270E9436120C94DF120E94D11238F093
:102450000E94D81220F039F49F3F19F426F40C940E
:10246000CE120EF4E095E7FB0C94C812E92F0E94FF
:10247000F01258F3BA17620773078407950720F024
:1024800079F4A6F50C9412130EF4E0950B2EBA2FE6
:10249000A02D0B01B90190010C01CA01A00111246A
:1024A000FF27591B99F0593F50F4503E68F11A1616
:1024B000F040A22F232F342F4427585FF3CF4695A7
:1024C00037952795A795F0405395C9F77EF41F16C9
:1024D000BA0B620B730B840BBAF09150A1F0FF0F93
:1024E000BB1F661F771F881FC2F70EC0BA0F621F7F
:1024F000731F841F48F4879577956795B795F7956F
:102500009E3F08F0B0CF9395880F08F09927EE0F03
:10251000979587950895E89409C097FB3EF49095A8
:102520008095709561957F4F8F4F9F4F9923A9F0AC
:10253000F92F96E9BB279395F6958795779567953B
:10254000B795F111F8CFFAF4BB0F11F460FF1BC07F
:102550006F5F7F4F8F4F9F4F16C0882311F096E912
:1025600011C0772321F09EE8872F762F05C06623C0
:1025700071F096E8862F70E060E02AF09A95660F79
:10258000771F881FDAF7880F9695879597F9089532
:1025900097F99F6780E870E060E008959FEF80EC16
:1025A000089500240A9416161706180609060895B9
:1025B00000240A9412161306140605060895092E1F
:1025C0000394000C11F4882352F0BB0F40F4BF2B8E
:1025D00011F460FF04C06F5F7F4F8F4F9F4F0895CE
:1025E00057FD9058440F551F59F05F3F71F04795C4
:1025F000880F97FB991F61F09F3F79F087950895A9
:10260000121613061406551FF2CF4695F1DF08C0C7
:10261000161617061806991FF1CF869571056105E4
:1026200008940895E894BB2766277727CB0197F98C
:1026300008950E942C130C94DF120E94D11238F0DE
:102640000E94D81220F0952311F00C94C8120C941B
:10265000CE1211240C9413130E94F01270F3959F64
:10266000C1F3950F50E0551F629FF001729FBB2789
:10267000F00DB11D639FAA27F00DB11DAA1F649F25
:102680006627B00DA11D661F829F2227B00DA11DD8
:10269000621F739FB00DA11D621F839FA00D611D5E
:1026A000221F749F3327A00D611D231F849F600D7F
:1026B000211D822F762F6A2F11249F5750409AF0A8
:1026C000F1F088234AF0EE0FFF1FBB1F661F771F34
:1026D000881F91505040A9F79E3F510580F00C94FF
:1026E000C8120C9413135F3FE4F3983ED4F386951D
:1026F00077956795B795F795E7959F5FC1F7FE2B9F
:10270000880F911D9695879597F908950F931F93BC
:10271000CF93DF938230910510F482E090E0E09156
:10272000B603F091B70330E020E0B0E0A0E03097CE
:1027300099F42115310509F44AC0281B390B2430BE
:102740003105D8F58A819B816115710589F1FB01FD
:1027500093838283FE0111C04081518102811381E4
:1027600048175907E0F04817590799F4109761F096
:1027700012960C93129713961C933296CF01DF9109
:10278000CF911F910F9108950093B6031093B70353
:10279000F4CF2115310551F04217530738F0A90144
:1027A000DB019A01BD01DF01F801C1CFEF01F9CFD3
:1027B0009093B7038093B603CDCFFE01E20FF31FD2
:1027C000819391932250310939832883D7CF209167
:1027D000B4033091B503232B41F4209106013091CD
:1027E00007013093B5032093B40320910401309185
:1027F00005012115310541F42DB73EB7409108017F
:1028000050910901241B350BE091B403F091B503FD
:10281000E217F307A0F42E1B3F0B2817390778F0B7
:10282000AC014E5F5F4F2417350748F04E0F5F1F16
:102830005093B5034093B403819391939FCFF0E0FD
:10284000E0E09CCFCF93DF930097E9F0FC01329753
:1028500013821282A091B603B091B703ED0130E06C
:1028600020E01097A1F420813181820F931F2091E5
:10287000B4033091B5032817390709F061C0F0930C
:10288000B503E093B403DF91CF910895EA01CE1729
:10289000DF07E8F54A815B819E0141155105B1F7DB
:1028A000E901FB83EA8349915991C40FD51FEC17C5
:1028B000FD0761F4808191810296840F951FE901E3
:1028C00099838883828193819B838A83F0E0E0E00F
:1028D00012968D919C9113970097B9F52D913C918B
:1028E0001197CD010296820F931F2091B40330916E
:1028F000B5032817390739F6309751F51092B70309
:102900001092B603B093B503A093B403BCCFD383A6
:10291000C28340815181840F951FC817D90761F484
:102920004E5F5F4F88819981480F591F51834083C3
:102930008A819B81938382832115310509F0B0CF71
:10294000F093B703E093B6039ECFFD01DC01C0CF47
:1029500013821282D7CFFB01DC014150504048F076
:1029600001900D920020C9F701C01D9241505040C6
:08297000E0F70895F894FFCF91
:10297800010000000000B8038000000000004603CA
:10298800A602D30293030403E202F6027372635CA5
:0C29980053657269616C2E637070000062
:00000001FF
