:100000000C9462000C947E080C9457080C948A009F
:100010000C948A000C948A000C948A000C948A0038
:100020000C948A000C948A000C948A000C948A0028
:100030000C948A000C94180A0C948A000C948A0080
:100040000C940D080C948A000C94CB080C94A50811
:100050000C948A000C948A000C948A000C948A00F8
:100060000C94FD080C948A00000000002400270076
:100070002A0000000000250028002B0000000000DE
:1000800023002600290004040404040404040202DA
:100090000202020203030303030301020408102007
:1000A0004080010204081020010204081020000012
:1000B0000008000201000003040700000000000027
:1000C00000003F0A11241FBECFEFD8E0DEBFCDBF36
:1000D00011E0A0E0B1E0E0E6FBE202C005900D9285
:1000E000A233B107D9F723E0A2E3B1E001C01D922A
:1000F000A33CB207E1F710E0C2E6D0E004C02197CC
:10010000FE010E940C13C136D107C9F70E94170BDC
:100110000C94AE150C940000089508950895089568
:10012000089508950895862F642FE091A701F09116
:10013000A801309711F0A9010994089508958091BC
:10014000470390914803892BB1F080914903909126
:100150004A03892B81F080914B0390914C03892BAA
:1001600051F081E02091410330914203232B09F0AB
:1001700080E0819508958FEF08950F931F93CF939B
:10018000DF938C01EB01DC018D919C9168816F778D
:10019000DC01ED91FC910190F081E02D0995F801D1
:1001A00080819181688170E0660F672F661F770BF1
:1001B000DC01ED91FC910190F081E02DDF91CF9178
:1001C0001F910F910994EF92FF920F931F93CF937A
:1001D000DF93C82F8091A0029091A1020097A9F10E
:1001E0007A018B01DC01ED91FC910190F081E02D11
:1001F00060EF09958091A0029091A102DC01ED9140
:10020000FC910190F081E02D6C2F0995E7010E0D16
:100210001F1DC017D10739F0BE0180EA92E00E948D
:10022000BD002196F6CF8091A0029091A102DC0141
:10023000ED91FC910190F081E02D67EFDF91CF917E
:100240001F910F91FF90EF900994DF91CF911F9133
:100250000F91FF90EF900895CF93DF93FC01A08161
:10026000B181109701F1EC01ED91FC911197019092
:10027000F081E02D69EFCD01099588819981DC013C
:10028000ED91FC910190F081E02D62E0099588816B
:100290009981DC01ED91FC910190F081E02D65E008
:1002A000DF91CF910994DF91CF9108951F93CF9360
:1002B000DF93182FEB018091A5029091A602681799
:1002C000790760F48091A3029091A402C80FD91F0E
:1002D000188380E0DF91CF911F910895E091D202C1
:1002E000F091D302309711F481E0F4CF81E0809354
:1002F000A2028091BE029091BF0209958091A50251
:100300009091A602C817D90778F7DCCFCF93DF9377
:10031000EC01FB0130E020E0C901880F991F8C1728
:100320009D0778F44081DB014D93BD0111979181C8
:10033000979599279795942B9C932F5F3F4F3296D3
:10034000EBCFC901DF91CF910895833081F028F47C
:10035000813099F08230A9F008958730A9F0883073
:10036000C9F08430B1F4809180008F7D03C080910A
:1003700080008F7780938000089584B58F7784BD47
:10038000089584B58F7DFBCF8091B0008F778093E7
:10039000B00008958091B0008F7DF9CFCF93DF93A7
:1003A000282F30E0F901E255FF4F8491F901E6561C
:1003B000FF4FD491F901EA57FF4FC491CC23A1F02C
:1003C00081110E94A501EC2FF0E0EE0FFF1FE45811
:1003D000FF4FA591B491EC91ED2381E090E009F4F9
:1003E00080E0DF91CF91089580E090E0FACF1F93F5
:1003F000CF93DF93282F30E0F901E255FF4F84912E
:10040000F901E656FF4FD491F901EA57FF4FC49125
:10041000CC23A9F0162F81110E94A501EC2FF0E04A
:10042000EE0FFF1FEE58FF4FA591B4918FB7F894D0
:10043000EC91111108C0D095DE23DC938FBFDF91C2
:10044000CF911F910895DE2BF8CFCF93DF9390E0EB
:10045000FC01E656FF4F24918A579F4FFC0184917F
:100460008823D1F090E0880F991FFC01E859FF4FD5
:10047000A591B491FC01EE58FF4FC591D491611143
:100480000EC09FB7F8948C91E22FE0958E238C9349
:100490002881E223E8839FBFDF91CF9108958FB732
:1004A000F894EC91E22BEC938FBFF6CF823091055C
:1004B00038F0880F991F880F991F05970197F1F75A
:1004C00008953FB7F8948091BF019091C001A09129
:1004D000C101B091C20126B5A89B05C02F3F19F0FC
:1004E0000196A11DB11D3FBFBA2FA92F982F8827B4
:1004F000BC01CD01620F711D811D911D42E0660F8F
:10050000771F881F991F4A95D1F708958F929F9260
:10051000AF92BF92CF92DF92EF92FF926B017C017C
:100520000E9461024B015C01C114D104E104F10499
:10053000B9F00E946102681979098A099B09683E2D
:1005400073408105910580F321E0C21AD108E108CA
:10055000F10888EE880E83E0981EA11CB11CE4CF40
:10056000FF90EF90DF90CF90BF90AF909F908F90D3
:1005700008952FB7F8946091BB017091BC018091F0
:10058000BD019091BE012FBF089589E00E94CE0168
:1005900060E0019709F061E089E00E94F70182E0E4
:1005A0008093B00180E29EE4909387008093860060
:1005B00082E18093810085EC92E090930501809325
:1005C000040181E080936F000895CB010C945602E2
:1005D000009721F0805C9F4F0C942C0108950895A2
:1005E000AF92BF92CF92DF92EF92FF920F931F9341
:1005F000CF93DF936C017B018B01040F151FEB017F
:100600005E01AE18BF08C017D10759F06991D60135
:10061000ED91FC910190F081E02DC6010995892BA7
:1006200079F7C501DF91CF911F910F91FF90EF9066
:10063000DF90CF90BF90AF900895FC01538D448D13
:10064000252F30E0842F90E0821B930B541710F07D
:10065000CF96089501970895FC01918D828D98178A
:1006600061F0A28DAE0FBF2FB11D5D968C91928D62
:100670009F5F9F73928F90E008958FEF9FEF089593
:10068000FC01918D828D981731F0828DE80FF11D5C
:10069000858D90E008958FEF9FEF0895FC01918D77
:1006A000228D892F90E0805C9F4F821B91098F7370
:1006B0009927089583EC91E00E944E0321E0892B55
:1006C00009F420E0822F089580E090E0892B29F042
:1006D0000E945A0381110C9400000895FC01A48D1E
:1006E000A80FB92FB11DA35ABF4F2C91848D90E054
:1006F00001968F739927848FA689B7892C93A08937
:10070000B1898C91837080648C93938D848D9813C0
:1007100006C00288F389E02D80818F7D8083089553
:10072000EF92FF920F931F93CF93DF93EC0181E041
:10073000888F9B8D8C8D98131AC0E889F9898081E8
:1007400085FF15C09FB7F894EE89FF896083E8891B
:10075000F98980818370806480839FBF81E090E00D
:10076000DF91CF911F910F91FF90EF900895F62E9A
:100770000B8D10E00F5F1F4F0F731127E02E8C8D34
:100780008E110CC00FB607FCFACFE889F989808179
:1007900085FFF5CFCE010E946E03F1CFEB8DEC0FFC
:1007A000FD2FF11DE35AFF4FF0829FB7F8940B8F96
:1007B000EA89FB8980818062CFCFCF93DF93EC0100
:1007C000888D8823B9F0AA89BB89E889F9898C9139
:1007D00085FD03C0808186FD0DC00FB607FCF7CFF5
:1007E0008C9185FFF2CF808185FFEDCFCE010E94F5
:1007F0006E03E9CFDF91CF91089520915D01260F1F
:100800003327331F21323105ECF420918101FC01A3
:1008100090E080E0243069F082E00895A0915D01CD
:100820002191AC01435C5E4FA40FB52FB11D2C93F9
:100830000196861798F380915D01680F60935D01C2
:1008400080E0089581E0089508958FEF9FEF089567
:100850008FEF9FEF08958091360190E091958195FB
:1008600091090895CF93DF93CB01EA01642F0E9491
:10087000FD03CE01DF91CF910895CF93DF931F92B7
:10088000CDB7DEB7698361E0CE0101960E94FD031A
:1008900081E090E00F90DF91CF91089590E080E0AB
:1008A0000895CF92DF92EF92FF920F931F93CF9311
:1008B000DF93FC01E058FF4FE080EE2009F458C0C0
:1008C000EC01C05CDF4FA881B981109709F450C0DA
:1008D000FC01EF57FF4FC080D180F60111810081EC
:1008E000ED91FC9111970190F081E02D60EFCD0129
:1008F000099588819981DC01ED91FC910190F0814D
:10090000E02D69E7099588819981DC01ED91FC91E1
:100910000190F081E02D602F099588819981DC019B
:10092000ED91FC910190F081E02D612F0995F12C62
:1009300001E010E00F5F1F4FE016F10639F0B6013D
:10094000600F711FCE010E94BD00F4CF8881998194
:10095000DC01ED91FC910190F081E02D67EFDF91DA
:10096000CF911F910F91FF90EF90DF90CF9009945E
:10097000DF91CF911F910F91FF90EF90DF90CF907B
:100980000895009711F00C945104089582E00E949C
:10099000CE01892B59F40E94610260933201709359
:1009A0003301809334019093350108950C946102D2
:1009B0000895CF93DF9300D0CDB7DEB789839A83B4
:1009C000AE014F5F5F4F62E070E083E00E94E300A2
:1009D0000F900F90DF91CF910895FC0183858F3F99
:1009E00019F061E00C94F7010895FC018081918178
:1009F000892B39F0A281B3819C9111968C919CBD79
:100A00008DBD83858F3F19F060E00C94F701089548
:100A1000AF92BF92CF92DF92EF92FF920F931F930C
:100A2000CF93DF93EC0188819981892B89F06EBD8A
:100A30000DB407FEFDCFBEB48B2DDF91CF911F917A
:100A40000F91FF90EF90DF90CF90BF90AF900895FF
:100A50008885998511E0892B09F010E8AA24A394D0
:100A6000862F812309F0A12C062F2C813D814E81F8
:100A70005F8160E271EA87E090E00E94DB12F22E73
:100A8000B02EE12CC22ED12CFF2019F0C6010E94FD
:100A900056028A85877F09F042C08D858F3F89F095
:100AA000902F912381E009F480E08A1551F0EF85C1
:100AB000F8898F89992369F19081892B8083AA24F1
:100AC000A394E989FA898081998D892B8083FF20FD
:100AD00019F0C6010E9456028E858F3F39F0EB89CE
:100AE000FC898081988D892309F0E12AE989FA89B6
:100AF0009081898D8095892380838E858F3F09F031
:100B0000BE2C88859985892BB9F5110F1111BCCFA1
:100B100093CF9081809589238083A12CD2CFE989BE
:100B2000FA898081998D892B8083FF2019F0C60175
:100B30000E9456028D858F3F49F0EF85F8898F8995
:100B4000902F9123A9F09081892B8083E989FA89DC
:100B50009081898D8095892380838E858F3F69F26E
:100B6000EB89FC898081988D892339F2E12AC5CFF0
:100B7000908180958923E9CF1695C8CFCF92DF92D7
:100B8000EF92FF920F931F93CF93DF93182F6B0178
:100B9000C091AD01D091AE017901CE010E94F50462
:100BA000612FCE010E9408058601C8018C199D099C
:100BB0008E159F0538F4F80161918F01CE010E94D6
:100BC0000805F3CFCE010E94ED0480E0DF91CF91C4
:100BD0001F910F91FF90EF90DF90CF900895CF92EB
:100BE000DF92EF92FF920F931F93CF93DF93182F13
:100BF0007B01C091AD01D091AE016901CE010E948F
:100C0000F504612FCE010E9408058701C8018E19E5
:100C10009F098C159D0540F46FEFCE010E940805D9
:100C2000F80181938F01F2CFCE010E94ED0480E0A4
:100C3000DF91CF911F910F91FF90EF90DF90CF90B8
:100C400008953F924F925F926F927F928F929F9200
:100C5000AF92BF92CF92DF92EF92FF920F931F93CA
:100C6000CF93DF93CDB7DEB7382E4B0129013A0180
:100C7000CDB6DEB60E949F0081116FC0ADB6BEB684
:100C800080914603A3019201280F311D411D511D82
:100C90008DB79EB7821B930B0FB6F8949EBF0FBE05
:100CA0008DBFEDB7FEB731967F01E0914703F0911C
:100CB00048030091410310914203809143039091B6
:100CC0004403019709F441C0B701832D8068099559
:100CD00080934503840180E090E0DC01209146038D
:100CE000AC01BD01420F511D611D711D4E0D5F1DF7
:100CF000FA012081F80121938F010196A11DB11DF8
:100D0000481659066A067B0649F78091450381110A
:100D100089EF0FB6F894BEBE0FBEADBE0FB6F89405
:100D2000DEBE0FBECDBEDF91CF911F910F91FF9020
:100D3000EF90DF90CF90BF90AF909F908F907F907B
:100D40006F905F904F903F900895A3019201B4017E
:100D5000832D099580934503D8CF8FEFDFCF0F9375
:100D60001F93CF93DF9300D01F92CDB7DEB70E94C1
:100D70009F00811114C021E030E040E050E0BE014E
:100D80006D5F7F4F83E00E9421069B8194FF40C0EE
:100D900081113EC00E949F00882349F08FEF0F9081
:100DA0000F900F90DF91CF911F910F91089586EBD7
:100DB00089830091410310914203E0914903F0912E
:100DC0004A0321E030E040E050E0BE016F5F7F4F1A
:100DD0008EE709958093450381111CC04091410322
:100DE00050914203E0914B03F0914C0360ED77E0AA
:100DF00080E090E0099521E030E040E050E0BE0165
:100E00006F5F7F4F82E00E94210699819E7721F0DB
:100E10008CEFC5CF89EFC3CF882309F4C0CFF8CFBB
:100E2000EF92FF920F931F93CF93DF93CDB7DEB76F
:100E300028970FB6F894DEBF0FBECDBF182F062F30
:100E40007A01863009F45FC0B8F4823061F18430F1
:100E5000D9F1602F70E0A701812F0E94E30028964E
:100E60000FB6F894DEBF0FBECDBFDF91CF911F91BB
:100E70000F91FF90EF900895873009F456C0803F9E
:100E800041F78091AB0189838091AA018A83809187
:100E9000A9018B83AE014F5F5F4F63E070E081EF8C
:100EA0000E94E300D6CF0E94511228EE33E040E0CA
:100EB00050E00E94A912DC01CB018850954DAF4F44
:100EC000BF4F0E94D904C5CF0E94511220ED37E0D8
:100ED00040E050E00E94A9120E94811320E23CE50C
:100EE00041EC57E40E9413136D837E838F839887B0
:100EF00069837A838B839C83AE014F5F5F4F64E08D
:100F000070E085E0CDCF81E08093B9010E94B90205
:100F10006C597F4F8F4F9F4F6093B5017093B6010F
:100F20008093B7019093B80194CF1092B90191CFFB
:100F30001F93CF93DF9385ED8093BC00809139019F
:100F400090913A01A0913B01B0913C010796A11DFF
:100F5000B11D23E0B695A795979587952A95D1F76A
:100F60002091BC0024FD03C01092810152C0409129
:100F7000390150913A0160913B0170913C01452B40
:100F8000462B472B69F30097A105B10541F025E3F6
:100F90002A95F1F700000197A109B109E1CF8091ED
:100FA0003801C1E0C0933701882399F1D091B8008E
:100FB0001091BA008091BC008A7B8093BC0060E0F5
:100FC00082E10E94F70160E083E10E94F701109244
:100FD0008101C09383011092820161E082E10E944D
:100FE000F70161E083E10E94F7018091B9008E7FF3
:100FF0008093B9008091B9008D7F8093B90088E417
:101000008093B80085E48093BC001093BA00D0931D
:10101000B800DF91CF911F9108951F920F920FB6E4
:101020000F9211242F933F938F939F93AF93BF936E
:101030008091BB019091BC01A091BD01B091BE0116
:101040003091BA0123E0230F2D3758F50196A11DE9
:10105000B11D2093BA018093BB019093BC01A09372
:10106000BD01B093BE018091BF019091C001A091DC
:10107000C101B091C2010196A11DB11D8093BF01B4
:101080009093C001A093C101B093C201BF91AF91F1
:101090009F918F913F912F910F900FBE0F901F90B6
:1010A000189526E8230F0296A11DB11DD2CF1F92DD
:1010B0000F920FB60F9211242F933F934F935F938C
:1010C0006F937F938F939F93AF93BF93EF93FF9310
:1010D000E0910201F09103010995FF91EF91BF9119
:1010E000AF919F918F917F916F915F914F913F91C0
:1010F0002F910F900FBE0F901F9018951F920F9277
:101100000FB60F9211242F933F934F935F936F93DA
:101110007F938F939F93AF93BF93EF93FF93E09150
:101120000001F09101010995FF91EF91BF91AF91FD
:101130009F918F917F916F915F914F913F912F91EF
:101140000F900FBE0F901F9018951F920F920FB621
:101150000F9211242F933F934F935F936F937F933D
:101160008F939F93AF93BF93EF93FF9383EC91E0A3
:101170000E946E03FF91EF91BF91AF919F918F916C
:101180007F916F915F914F913F912F910F900FBE83
:101190000F901F9018951F920F920FB60F92112467
:1011A0002F938F939F93EF93FF93E091D301F0914F
:1011B000D4018081E091D901F091DA0182FD1BC058
:1011C00090818091DC018F5F8F732091DD01821708
:1011D00041F0E091DC01F0E0ED53FE4F958F8093FC
:1011E000DC01FF91EF919F918F912F910F900FBE96
:1011F0000F901F9018958081F4CF1F920F920FB619
:101200000F9211242F933F934F935F936F937F938C
:101210008F939F93AF93BF93EF93FF938091B90008
:10122000887F803609F44AC0F0F5883209F4A5C0F9
:1012300018F5803109F499C0B8F4882309F4F5C091
:10124000883009F492C0FF91EF91BF91AF919F91C7
:101250008F917F916F915F914F913F912F910F905F
:101260000FBE0F901F901895883109F486C0803208
:1012700051F78093800114C0803409F49BC040F47E
:101280008033B9F38833F9F68093800185ECAEC0E2
:10129000803509F483C0883509F494C0883499F600
:1012A0000E949807D0CF883909F48AC038F588376A
:1012B00029F050F4883611F0803729F683E08093C6
:1012C000810110927F0155C0883809F479C08039B6
:1012D00019F0803809F0B7CF80917F01803208F093
:1012E0006FC0E0917F0181E08E0F80937F0180913C
:1012F000BB00F0E0E15AFE4F80833BC0803B39F0F9
:10130000D0F4803A09F477C0883A09F09CCF84E0A1
:101310008093810110925E0110925D01F0E0E0E0A7
:10132000099580915D0181110FC081E080935D017D
:1013300010923D0109C0803C09F4A8CF883C09F413
:10134000A5CF883B09F07FCFE0915E0181E08E0F51
:1013500080935E01F0E0E35CFE4F80818093BB00F0
:1013600090915E0180915D0129C08091A6018093DA
:10137000BB0085EC8093BC0066CF9091A501809165
:10138000A401981758F5E091A50181E08E0F809394
:10139000A501F0E0EC57FE4F8081E9CFE091A50177
:1013A00081E08E0F8093A5018091BB00F0E0EC57A7
:1013B000FE4F80839091A5018091A4019817C8F2F7
:1013C00085E8D8CFE091A50181E08E0F8093A5013B
:1013D0008091BB00F0E0EC57FE4F80838091830149
:1013E00081115ECF81E08093820184EA8093BC000A
:1013F0001092810128CF85EC8093BC00109281016E
:1014000080917F01803230F4E0917F01F0E0E15A79
:10141000FE4F108260917F0170E08FE591E0F0E077
:10142000E0E0099510927F010ECF1092800138CF35
:101430001F920F920FB60F9211242F933F934F9349
:101440005F936F937F938F939F93AF93BF93EF932C
:10145000FF93E0910401F09105010995FF91EF914F
:10146000BF91AF919F918F917F916F915F914F91BC
:101470003F912F910F900FBE0F901F901895E3ECA6
:10148000F1E01382128288EE93E0A0E0B0E0848362
:101490009583A683B78384E191E09183808385EC73
:1014A00090E09587848784EC90E09787868780EC2E
:1014B00090E0918B808B81EC90E0938B828B82EC1F
:1014C00090E0958B848B86EC90E0978B868B118EC9
:1014D000128E138E148E80E692E01092A10210926A
:1014E000A0029093A4028093A30220E430E0309302
:1014F000A6022093A5021092A7021092A8021092B1
:10150000AA021092A9021092AB021092AD021092A0
:10151000AC021092AF021092AE021092B102109281
:10152000B0021092B3021092B2021092B502109261
:10153000B4021092B7021092B6021092B902109241
:10154000B8021092BF021092BE021092C102109215
:10155000C0021092C3021092C2021092C5021092F1
:10156000C4021092D3021092D2021092A2021092E0
:10157000E0021092E2021092E102109225032CE8A0
:1015800030E03093C7022093C6022DE830E030935C
:10159000C9022093C8022EE830E03093CB0220939A
:1015A000CA022FE830E03093CD022093CC0220E92C
:1015B00030E03093CF022093CE0221E930E0309327
:1015C000D1022093D00222E930E03093D50220935B
:1015D000D40223E930E03093D7022093D60221ECE5
:1015E00034E03093D9022093D8029093BB028093C9
:1015F000BA0228EE32E03093DB022093DA029093B5
:10160000BD028093BC028EE990E09093DD0280934E
:10161000DC02E6E2F3E01186108613861286168A53
:10162000178A108E118E1686158614860895CF930C
:10163000DF93CDB7DEB769970FB6F894DEBF0FBE64
:10164000CDBF789484B5826084BD84B5816084BD4B
:1016500085B5826085BD85B5816085BD80916E0050
:10166000816080936E001092810080918100826081
:1016700080938100809181008160809381008091BE
:1016800080008160809380008091B10084608093AD
:10169000B1008091B00081608093B00080917A00A9
:1016A000846080937A0080917A00826080937A00CF
:1016B00080917A00816080937A0080917A008068BE
:1016C00080937A001092C10042E0F42EF092AB01B8
:1016D00081E08093AA011092A90188E08093E00242
:1016E0008091E1029091E2020E9416150091E002C1
:1016F00010E0C80101960E947A149093E202809350
:10170000E102FC01E00FF11F1082DC01FC92119656
:101710001C92A8014250510966E271E002960E94B3
:101720009F1580E197E09093A8018093A701E09135
:10173000D301F091D401F082E091D301F091D40172
:101740001082E091CF01F091D0011082E091D1019F
:10175000F091D20180E180831092DB01E091D7010A
:10176000F091D80186E08083E091D501F091D60117
:10177000808180618083E091D501F091D6018081E4
:1017800088608083E091D501F091D60180818068E6
:101790008083E091D501F091D60180818F7D808397
:1017A0008091250381114FC061E08DE00E942502E8
:1017B00062ED70E080E090E00E94860261E08DE0E2
:1017C0000E94F70168E270E080E090E00E948602EB
:1017D00060E08DE00E94F70162ED70E080E090E053
:1017E0000E94860261E08DE00E94F70168E270E0ED
:1017F00080E090E00E94860260E08DE00E94F701A8
:101800006AEF70E080E090E00E94860215E062EDF1
:1018100070E080E090E00E94860261E08DE00E942E
:10182000F70168E270E080E090E00E94860260E0EC
:101830008DE00E94F701115051F76DE770E080E0F4
:1018400090E00E94860283EC91E09093DF02809307
:10185000DE029093A1028093A00280EA92E00E94AF
:101860002C0180E692E00E94510461E081E10E9437
:10187000250260E082E00E94250261E089E00E948A
:10188000250261E081E10E94F70186EC94E09093EB
:10189000010180930001809169008C7F81608093B9
:1018A0006900E89A80E18093810010928000109294
:1018B00087001092860091E19093810025EC32E040
:1018C000309305012093040191E090936F00809381
:1018D000810082E08093B00180E29EE490938700D3
:1018E0008093860082E180938100109281001092A3
:1018F0008500109284008091B00180618093810006
:1019000086E480937C0080917A00806480937A00E2
:1019100080917A0086FDFCCF8091780060917900FB
:10192000762F682F072E000C880B990B6115710517
:101930008105910511F00E94A0121092B9018091C9
:101940002E0390912F03009711F00E94161500911D
:101950003003109131030115110551F0F801828116
:101960009381009711F00E941615C8010E94161568
:1019700010922F0310922E038CE190E00E947A14B3
:101980008C0188E0D8011B968C931B978FEF1E96D5
:101990008C931E971D968C931D971C968C931C9769
:1019A0008FEA91E011969C938E935B961C9282E055
:1019B00090E00E947A1421E5FC0120831182D80175
:1019C00013969C938E93129780E492E4AFE0B0E07C
:1019D000F80184839583A683B78381E090E09187A3
:1019E0008087128610933103009330031093AE0169
:1019F0000093AD0161E088E00E94250261E0D8011A
:101A00001B968C910E94F701F80180819181892BAE
:101A100009F4A5C2FFB6F8948091AC01811127C0EA
:101A2000E0E9F0E08491E4EAF0E09491E82FF0E05E
:101A3000EE0FFF1FE859FF4FA591B491EC91E923F8
:101A400021F461E08AE00E94F70161E08AE00E94EF
:101A500025028CB580618CBD8CB580648CBD61E045
:101A60008DE00E94250261E08BE00E9425028091BA
:101A7000AC018F5F8093AC01FFBEFF24F394D801CB
:101A80005B96FC9288E0809340031092440310928E
:101A900043038FEE95E090934803809347038EEBCA
:101AA00095E090934A03809349038091AD01909112
:101AB000AE019093420380934103F09246038091DC
:101AC0003003909131039093AE018093AD0185EE88
:101AD00092E090934C0380934B030E94AF068111D8
:101AE000D3C11E8A0E949F008E010F5F1F4F81117C
:101AF00086C18091430390914403019709F454C235
:101B0000F092460321E030E040E050E0BE016A5E22
:101B10007F4F80E00E942106811171C18E8980353E
:101B200019F0803609F06BC1809340030E94AF0624
:101B3000811165C185E1F80111928A95E9F725E1E6
:101B400030E040E050E0B80181E30E942106698165
:101B50007A8170938A036093890390E080E00E9409
:101B60007F1320E030E040E853E40E940D146093BE
:101B70004D0370934E0380934F03909350036B81FA
:101B80007C8170938C0360938B0390E080E00E94D3
:101B90007F1320E030E040E850E30E940D14609392
:101BA00051037093520380935303909354036D81B8
:101BB00060938D03062E000C770B880B990B0E9407
:101BC000811320E030E040E857E20E940D1460935A
:101BD00055037093560380935703909358036E8177
:101BE0007F8170938F0360938E037054072E000CD7
:101BF000880B990B0E94811320E030E040E855E308
:101C00000E940D146093590370935A0380935B03F1
:101C100090935C036885798570939103609390033A
:101C20007054072E000C880B990B0E94811320E042
:101C300030E040E051E30E940D1460935D03709327
:101C40005E0380935F03909360036A8560939203C1
:101C5000062E000C770B880B990B0E94811320E055
:101C600030E040E85FE20E940D14609361037093DE
:101C7000620380936303909364036B856093930383
:101C8000062E000C770B880B990B0E94811320E025
:101C900030E040E05DE20E940D14609365037093B4
:101CA000660380936703909368036C857D857093CA
:101CB00095036093940390E080E00E947F1320E0FE
:101CC00030E040E051E40E940D146093690370938A
:101CD0006A0380936B0390936C036E857F8570938A
:101CE00097036093960390E080E00E947F1320E0CA
:101CF00030E040E85CE30E940D1460936D03709344
:101D00006E0380936F0390937003688960939803C8
:101D1000062E000C770B880B990B0E94811320E094
:101D200030E040E85BE30E940D1460937103709310
:101D3000720380937303909374036989609399038A
:101D4000062E000C770B880B990B0E94811320E064
:101D500030E040E058E30E940D14609375037093E7
:101D6000760380937703909378036A897B897093D5
:101D70009B0360939A03072E000C880B990B0E941B
:101D8000811320E030E040E857E20E940D14609398
:101D9000790370937A0380937B0390937C036C891F
:101DA00060939C03062E000C770B880B990B0E9406
:101DB000811320E030E040E857E20E940D14609368
:101DC0007D0370937E0380937F03909380036D89DE
:101DD00060939D03062E000C770B880B990B0E94D5
:101DE000811320E030E040E05FE10E940D14609339
:101DF000810370938203809383039093840325E18E
:101E000030E040E050E0B80181E30E9421068111FA
:101E10003BC0B801AE014A5E5F4F1FEF3DE1DB0101
:101E20002D91BD0198E0812F8227881F8827881F68
:101E3000110F220F839F802D11241827915099F79D
:101E40006417750761F721E030E040E050E080E37F
:101E50000E94210610959E89191316C0811114C085
:101E60001092AA03109233031092A9031092340324
:101E70001092AB031092320383E08093AC0381E0B5
:101E8000809335038093A6030E94B90268517C4F6A
:101E90008F4F9F4F6093B1017093B2018093B30154
:101EA0009093B40180ED882E87E0982EA12CB12C60
:101EB00098EE492E93E0592E612C712C22E0222EAF
:101EC000312C01E010E08091DE029091DF02DC0114
:101ED000ED91FC910084F185E02D0995892B09F4A1
:101EE000F8C18091DE029091DF02DC01ED91FC915E
:101EF0000284F385E02D09959C018F3F980719F323
:101F0000982F8091AB02882309F4BBC0973F09F05A
:101F1000A7C01092AB02A091A302B091A4026C9151
:101F2000613709F460C0693709F084C0E091D802D4
:101F3000F091D902309739F28091AC029091AD02C4
:101F400083309105A0F530E020E050E040E070E003
:101F500060E08091BA029091BB020995B4CF61E034
:101F600084850E942502F80182858B7FD1F460E090
:101F700084850E94F701F80185858F3F49F061E073
:101F80000E94250261E0D8011D968C910E94F70104
:101F9000F80186858F3F09F470CD60E00E9425022C
:101FA0006CCD61E08485E5CF10924603ABCDBD01D9
:101FB0006D5F7F4F03970E948601BC016D5F7F4F6D
:101FC00080E00E945601E091A302F091A4029F01DB
:101FD0002D5F3F4F428150E0618170E0E091D80277
:101FE000F091D902B6CF8091D4029091D502892B7D
:101FF00009F469CFBD016F5F7F4F8091AC02909172
:10200000AD0201970E948601BC016F5F7F4F80E0A7
:102010000E9456016091A3027091A4026F5F7F4FEE
:10202000E091D402F091D5028091C0029091C1025A
:10203000099549CFE091D602F091D702309709F483
:1020400042CF9D012F5F3F4F4091AC025091AD02B6
:10205000415051098091C2029091C302099533CF3A
:102060006091AC027091AD02822F0E945601809166
:10207000AC029091AD0201969093AD028093AC02B8
:1020800022CF6091A9027091AA026115710509F42D
:10209000B1C027FDAFC0615071097093AA0260936F
:1020A000A902822F0E9456018091A9029091AA0252
:1020B000892B09F008CF8091A702882309F403CF68
:1020C000803D09F483C040F4803949F1803C09F433
:1020D00069C01092A702F7CE843FE1F1853F09F471
:1020E0004DC0803EB1F7E091C602F091C702309733
:1020F00081F3A091A302B091A4024C9120E8429FE9
:10210000C001112411964C91480F592F511D609117
:10211000A8028091AE029091AF020995DACFE091CA
:10212000C802F091C9023097A1F2A091A302B09128
:10213000A4024C9120E8429FC001112411964C91B9
:10214000480F592F511D6091A8028091B0029091C3
:10215000B102E3CFE091CE02F091CF02309709F4C3
:10216000B8CFA091A302B091A4024C9150E0119677
:102170006C918091B6029091B702CFCFE091D002DE
:10218000F091D102309709F4A4CFA091A302B091AD
:10219000A4024C9150E011966C918091B8029091FC
:1021A000B902BBCFE091CA02F091CB02309709F49B
:1021B00090CFA091A302B091A4024C9150E0609105
:1021C000A8028091B2029091B302A7CFE091CC0215
:1021D000F091CD02309709F47CCFA091A302B09189
:1021E000A4024C9150E06091A8028091B4029091B9
:1021F000B50293CF903F30F4822F8F708093A80266
:10220000922F907F903FF1F190F4903CB1F150F417
:10221000903909F058CE3092AA022092A9029093E8
:10222000A70251CE903D49F1903EA9F34CCE993F83
:1022300009F443C028F48CE0890F823060F343CE68
:102240009F3F09F040CE1092AA021092A90210926C
:10225000A7021092A80290E080E02091A5023091A0
:10226000A60282179307B0F4E091A302F091A402B2
:10227000E80FF91F10820196F0CF1093AA02009385
:10228000A902CDCF81E08093AB021092AD021092F3
:10229000AC0219CE1092AB021092AD021092AC02B9
:1022A000E091DC02F091DD028091C4029091C502C0
:1022B000309709F408CE099506CEE091DA02F09144
:1022C000DB02309709F4FFCD8091BC029091BD02F2
:1022D000F2CF8091B9018823A9F0C090B501D090C8
:1022E000B601E090B701F090B8010E94B9026C15F8
:1022F0007D058E059F0548F16C197D098E099F09A2
:1023000097FF29C0C090B101D090B201E090B30115
:10231000F090B4010E94B9026C157D058E059F05F1
:1023200008F454C06C197D098E099F0997FF54C0A9
:10233000A0E0B0E0AB2B09F4C6CD0E945A0388237D
:1023400009F4C1CD0E940000BECDC61AD70AE80A22
:10235000F90AF7FED7CF0E945112A50194010E94FD
:10236000A9120E94811320E23CE541EC57E40E944F
:1023700013136E8B7F8B888F998F69837A838B83FE
:102380009C83AE014F5F5F4F64E070E085E00E9488
:10239000E3000E945112A30192010E94A912DC01E4
:1023A000CB018850954DAF4FBF4F0E94D9040E947A
:1023B000B9026C597F4F8F4F9F4F6093B501709357
:1023C000B6018093B7019093B8019CCFC61AD70A83
:1023D000E80AF90AF7FEACCF81E10E94CE0161E084
:1023E000019709F460E081E10E94F7010E94B902BF
:1023F00068517C4F8F4F9F4F6093B1017093B20132
:102400008093B3019093B40193CF8F929F92AF9238
:10241000BF92CF92DF92EF92FF92CF93DF93EC01C6
:10242000688179818A819B8161157105810591059A
:1024300021F464E279ED8BE597E02DE133EF41E0A3
:1024400050E00E94A91249015A019B01AC01A7EA80
:10245000B1E40E94C8126B017C01ACEEB4EFA5019F
:1024600094010E94D612C60ED71EE81EF91EF7FE72
:1024700006C081E0C81AD108E10880E8F80AC882DD
:10248000D982EA82FB82C701B6019F77DF91CF91A3
:10249000FF90EF90DF90CF90BF90AF909F908F9084
:1024A00008958F929F92AF92BF92CF92DF92EF9258
:1024B000FF9260910601709107018091080190914F
:1024C0000901611571058105910521F464E279ED39
:1024D0008BE597E02DE133EF41E050E00E94A91237
:1024E00049015A019B01AC01A7EAB1E40E94C8125C
:1024F0006B017C01ACEEB4EFA50194010E94D612F1
:10250000C60ED71EE81EF91EF7FE06C081E0C81AE7
:10251000D108E10880E8F80AC0920601D0920701CC
:10252000E0920801F0920901C701B6019F77FF9080
:10253000EF90DF90CF90BF90AF909F908F900895D5
:10254000609306017093070180930801909309013D
:102550000895052E97FB1EF400940E94C01257FDAB
:1025600007D00E94DB1207FC03D04EF40C94C0127B
:1025700050954095309521953F4F4F4F5F4F0895AF
:1025800090958095709561957F4F8F4F9F4F0895DF
:102590000E94FD12A59F900DB49F900DA49F800DE9
:1025A000911D11240895B7FF0C94C8120E94C812FF
:1025B000821B930B0895A1E21A2EAA1BBB1BFD01DF
:1025C0000DC0AA1FBB1FEE1FFF1FA217B307E40712
:1025D000F50720F0A21BB30BE40BF50B661F771F6A
:1025E000881F991F1A9469F760957095809590954A
:1025F0009B01AC01BD01CF010895A29FB001B39F23
:10260000C001A39F700D811D1124911DB29F700DFB
:10261000811D1124911D0895EE0FFF1F0590F49167
:10262000E02D09945058BB27AA270E942A130C9426
:10263000D3130E94C51338F00E94CC1320F039F454
:102640009F3F19F426F40C94C2130EF4E095E7FBB7
:102650000C94BC13E92F0E94E41358F3BA176207D5
:1026600073078407950720F079F4A6F50C940614F7
:102670000EF4E0950B2EBA2FA02D0B01B90190019D
:102680000C01CA01A0011124FF27591B99F0593FE1
:1026900050F4503E68F11A16F040A22F232F342F29
:1026A0004427585FF3CF469537952795A795F04077
:1026B0005395C9F77EF41F16BA0B620B730B840B8C
:1026C000BAF09150A1F0FF0FBB1F661F771F881F44
:1026D000C2F70EC0BA0F621F731F841F48F487959C
:1026E00077956795B795F7959E3F08F0B0CF93958E
:1026F000880F08F09927EE0F979587950895E8942D
:1027000009C097FB3EF490958095709561957F4F39
:102710008F4F9F4F9923A9F0F92F96E9BB279395E7
:10272000F695879577956795B795F111F8CFFAF4F7
:10273000BB0F11F460FF1BC06F5F7F4F8F4F9F4F28
:1027400016C0882311F096E911C0772321F09EE886
:10275000872F762F05C0662371F096E8862F70E0EC
:1027600060E02AF09A95660F771F881FDAF7880FC6
:102770009695879597F9089597F99F6780E870E097
:1027800060E008959FEF80EC089500240A941616E7
:10279000170618060906089500240A94121613064F
:1027A000140605060895092E0394000C11F48823DD
:1027B00052F0BB0F40F4BF2B11F460FF04C06F5FF9
:1027C0007F4F8F4F9F4F089557FD9058440F551FCF
:1027D00059F05F3F71F04795880F97FB991F61F0A3
:1027E0009F3F79F087950895121613061406551F1A
:1027F000F2CF4695F1DF08C0161617061806991F86
:10280000F1CF86957105610508940895E894BB277A
:1028100066277727CB0197F908950E9420140C941E
:10282000D3130E94C51338F00E94CC1320F09523D7
:1028300011F00C94BC130C94C21311240C940714C3
:102840000E94E41370F3959FC1F3950F50E0551F5C
:10285000629FF001729FBB27F00DB11D639FAA27F5
:10286000F00DB11DAA1F649F6627B00DA11D661F44
:10287000829F2227B00DA11D621F739FB00DA11D65
:10288000621F839FA00D611D221F749F3327A00D1F
:10289000611D231F849F600D211D822F762F6A2FBB
:1028A00011249F5750409AF0F1F088234AF0EE0F20
:1028B000FF1FBB1F661F771F881F91505040A9F74D
:1028C0009E3F510580F00C94BC130C9407145F3F9D
:1028D000E4F3983ED4F3869577956795B795F79589
:1028E000E7959F5FC1F7FE2B880F911D9695879501
:1028F00097F908950F931F93CF93DF93823091053B
:1029000010F482E090E0E091C103F091C20330E066
:1029100020E0B0E0A0E0309799F42115310509F4EA
:102920004AC0281B390B24303105D8F58A819B8198
:102930006115710589F1FB0193838283FE0111C04A
:10294000408151810281138148175907E0F04817EF
:10295000590799F4109761F012960C9312971396F9
:102960001C933296CF01DF91CF911F910F91089563
:102970000093C1031093C203F4CF2115310551F028
:102980004217530738F0A901DB019A01BD01DF01AD
:10299000F801C1CFEF01F9CF9093C2038093C10337
:1029A000CDCFFE01E20FF31F8193919322503109A5
:1029B00039832883D7CF2091BF033091C003232BC5
:1029C00041F420910C0130910D013093C00320930C
:1029D000BF0320910A0130910B012115310541F40B
:1029E0002DB73EB740910E0150910F01241B350BBE
:1029F000E091BF03F091C003E217F307A0F42E1B90
:102A00003F0B2817390778F0AC014E5F5F4F241752
:102A1000350748F04E0F5F1F5093C0034093BF032C
:102A2000819391939FCFF0E0E0E09CCFCF93DF9331
:102A30000097E9F0FC01329713821282A091C10342
:102A4000B091C203ED0130E020E01097A1F42081A5
:102A50003181820F931F2091BF033091C00328174B
:102A6000390709F061C0F093C003E093BF03DF9121
:102A7000CF910895EA01CE17DF07E8F54A815B811F
:102A80009E0141155105B1F7E901FB83EA834991A4
:102A90005991C40FD51FEC17FD0761F48081918116
:102AA0000296840F951FE90199838883828193811F
:102AB0009B838A83F0E0E0E012968D919C911397BE
:102AC0000097B9F52D913C911197CD010296820F97
:102AD000931F2091BF033091C0032817390739F69F
:102AE000309751F51092C2031092C103B093C00306
:102AF000A093BF03BCCFD383C28340815181840F95
:102B0000951FC817D90761F44E5F5F4F888199817F
:102B1000480F591F518340838A819B81938382830D
:102B20002115310509F0B0CFF093C203E093C10342
:102B30009ECFFD01DC01C0CF13821282D7CFFB01F3
:102B4000DC014150504048F001900D920020C9F73F
:102B500001C01D9241505040E0F70895F894FFCF16
:102B6000EF02EF02D804010000000000C303800060
:102B7000000000009003F0021D03DD034E032C0350
:102B800040037372635C53657269616C2E6370708D
:022B9000000043
:00000001FF
