:100000000C9462000C94BE0C0C94970C0C948A0017
:100010000C948A000C948A000C948A000C948A0038
:100020000C948A000C948A000C948A000C948A0028
:100030000C948A000C94580E0C948A000C948A003C
:100040000C944D0C0C948A000C940B0D0C94E50C44
:100050000C948A000C948A000C948A000C948A00F8
:100060000C943D0D0C948A00000000002400270031
:100070002A0000000000250028002B0000000000DE
:1000800023002600290004040404040404040202DA
:100090000202020203030303030301020408102007
:1000A0004080010204081020010204081020000012
:1000B0000008000201000003040700000000000027
:1000C00000007F0E11241FBECFEFD8E0DEBFCDBFF2
:1000D00011E0A0E0B1E0E4EEF3E302C005900D9280
:1000E000AA37B107D9F724E0AAE7B1E001C01D9211
:1000F000A031B207E1F710E0C2E6D0E004C02197DA
:10010000FE010E941F17C136D107C9F70E94570F81
:100110000C94F0190C940000089508950895089522
:10012000089508950895862F642FE091F301F091CA
:10013000F401309711F0A901099408950895809170
:10014000940390919503892BB1F08091960390913F
:100150009703892B81F08091980390919903892BC3
:1001600051F081E020918E0330918F03232B09F011
:1001700080E0819508958FEF0895CF92DF92EF92FE
:10018000FF921F93CF93DF93CDB7DEB7C854D10949
:100190000FB6F894DEBF0FBECDBF88E4E0E1F1E01A
:1001A000DE01119601900D928A95E1F78091F4039A
:1001B000C12CD12C76018823C1F01091F60360E0A8
:1001C00070E080E89FE3111158C020E030E04AEF72
:1001D00054E40E944F1820E030E044EC53E40E94C5
:1001E00026170E9492176B017C018091F5038823EA
:1001F000D1F01091F70360E070E080E89FE3111107
:1002000042C020E030E04AEF54E40E944F1820E062
:1002100030E84CE953E40E9426170E949217C60E5C
:10022000D71EE81EF91E8AEEC80ED11CE11CF11C77
:10023000E091F90394E0E99FF001112481E090E05E
:100240008C0F9D1FE80FF91F80819181A281B381DE
:10025000C816D906EA06FB06E0F08DEFC85BDF4F53
:100260000FB6F894DEBF0FBECDBFDF91CF911F91C7
:10027000FF90EF90DF90CF9008959B01AC010E941A
:1002800026171150A0CF9B01AC010E9426171150D8
:10029000B6CF80E0E3CF0F931F93CF93DF938C0112
:1002A000EB01DC018D919C9168816F77DC01ED9110
:1002B000FC910190F081E02D0995F80180819181F8
:1002C000688170E0660F672F661F770BDC01ED9188
:1002D000FC910190F081E02DDF91CF911F910F9162
:1002E0000994EF92FF920F931F93CF93DF93C82F40
:1002F0008091ED029091EE020097A9F17A018B01B5
:10030000DC01ED91FC910190F081E02D60EF099509
:100310008091ED029091EE02DC01ED91FC91019053
:10032000F081E02D6C2F0995E7010E0D1F1DC01700
:10033000D10739F0BE018DEE92E00E944B0121966B
:10034000F6CF8091ED029091EE02DC01ED91FC91EF
:100350000190F081E02D67EFDF91CF911F910F9118
:10036000FF90EF900994DF91CF911F910F91FF9033
:10037000EF900895CF93DF93FC01A081B181109796
:1003800001F1EC01ED91FC9111970190F081E02DCC
:1003900069EFCD01099588819981DC01ED91FC918E
:1003A0000190F081E02D62E0099588819981DC015E
:1003B000ED91FC910190F081E02D65E0DF91CF910E
:1003C0000994DF91CF9108951F93CF93DF93182F56
:1003D000EB018091F2029091F3026817790760F4C3
:1003E0008091F0029091F102C80FD91F188380E02C
:1003F000DF91CF911F910895E0911F03F0912003A9
:10040000309711F481E0F4CF81E08093EF02809186
:100410000B0390910C0309958091F2029091F302E5
:10042000C817D90778F7DCCFCF93DF93EC01FB0136
:1004300030E020E0C901880F991F8C179D0778F4E0
:100440004081DB014D93BD011197918197959927CB
:100450009795942B9C932F5F3F4F3296EBCFC9011A
:10046000DF91CF910895833081F028F4813099F0A5
:100470008230A9F008958730A9F08830C9F084301F
:10048000B1F4809180008F7D03C0809180008F77D0
:1004900080938000089584B58F7784BD089584B5D6
:1004A0008F7DFBCF8091B0008F778093B00008954F
:1004B0008091B0008F7DF9CFCF93DF93282F30E06C
:1004C000F901E255FF4F8491F901E656FF4FD491AF
:1004D000F901EA57FF4FC491CC23A1F081110E948A
:1004E0003302EC2FF0E0EE0FFF1FE458FF4FA59111
:1004F000B491EC91ED2381E090E009F480E0DF918C
:10050000CF91089580E090E0FACF1F93CF93DF93CF
:10051000282F30E0F901E255FF4F8491F901E656AA
:10052000FF4FD491F901EA57FF4FC491CC23A9F0B2
:10053000162F81110E943302EC2FF0E0EE0FFF1F07
:10054000EE58FF4FA591B4918FB7F894EC9111112B
:1005500008C0D095DE23DC938FBFDF91CF911F9130
:100560000895DE2BF8CFCF93DF9390E0FC01E656A1
:10057000FF4F24918A579F4FFC0184918823D1F02B
:1005800090E0880F991FFC01E859FF4FA591B491A5
:10059000FC01EE58FF4FC591D49161110EC09FB779
:1005A000F8948C91E22FE0958E238C932881E2239E
:1005B000E8839FBFDF91CF9108958FB7F894EC91B6
:1005C000E22BEC938FBFF6CF8230910538F0880F85
:1005D000991F880F991F05970197F1F708953FB765
:1005E000F89480910C0290910D02A0910E02B091AE
:1005F0000F0226B5A89B05C02F3F19F00196A11D3B
:10060000B11D3FBFBA2FA92F982F8827BC01CD015C
:10061000620F711D811D911D42E0660F771F881FBB
:10062000991F4A95D1F708958F929F92AF92BF92EA
:10063000CF92DF92EF92FF926B017C010E94EF025A
:100640004B015C01C114D104E104F104B9F00E9432
:10065000EF02681979098A099B09683E7340810590
:10066000910580F321E0C21AD108E108F10888EE73
:10067000880E83E0981EA11CB11CE4CFFF90EF9080
:10068000DF90CF90BF90AF909F908F9008952FB73D
:10069000F894609108027091090280910A02909189
:1006A0000B022FBF0895CB010C94E402009721F0B8
:1006B000805C9F4F0C94BA0108950895AF92BF9249
:1006C000CF92DF92EF92FF920F931F93CF93DF931E
:1006D0006C017B018B01040F151FEB015E01AE184D
:1006E000BF08C017D10759F06991D601ED91FC916F
:1006F0000190F081E02DC6010995892B79F7C5019C
:10070000DF91CF911F910F91FF90EF90DF90CF90ED
:10071000BF90AF900895FC01538D448D252F30E09C
:10072000842F90E0821B930B541710F0CF960895FE
:1007300001970895FC01918D828D981761F0A28D2B
:10074000AE0FBF2FB11D5D968C91928D9F5F9F73F1
:10075000928F90E008958FEF9FEF0895FC01918DA7
:10076000828D981731F0828DE80FF11D858D90E014
:1007700008958FEF9FEF0895FC01918D228D892FB1
:1007800090E0805C9F4F821B91098F739927089599
:1007900080E192E00E94BC0321E0892B09F420E073
:1007A000822F089580E090E0892B29F00E94C803F1
:1007B00081110C9400000895FC01A48DA80FB92F9D
:1007C000B11DA35ABF4F2C91848D90E001968F7379
:1007D0009927848FA689B7892C93A089B1898C9198
:1007E000837080648C93938D848D981306C00288E7
:1007F000F389E02D80818F7D80830895EF92FF92B1
:100800000F931F93CF93DF93EC0181E0888F9B8D33
:100810008C8D98131AC0E889F989808185FF15C0ED
:100820009FB7F894EE89FF896083E889F989808110
:100830008370806480839FBF81E090E0DF91CF91DF
:100840001F910F91FF90EF900895F62E0B8D10E001
:100850000F5F1F4F0F731127E02E8C8D8E110CC070
:100860000FB607FCFACFE889F989808185FFF5CFBB
:10087000CE010E94DC03F1CFEB8DEC0FFD2FF11DBB
:10088000E35AFF4FF0829FB7F8940B8FEA89FB89F8
:1008900080818062CFCFCF93DF93EC01888D882356
:1008A000B9F0AA89BB89E889F9898C9185FD03C0D3
:1008B000808186FD0DC00FB607FCF7CF8C9185FFB8
:1008C000F2CF808185FFEDCFCE010E94DC03E9CF1E
:1008D000DF91CF9108952091A901260F3327331F6F
:1008E00021323105ECF42091CD01FC0190E080E053
:1008F000243069F082E00895A091A9012191AC0112
:1009000047575E4FA40FB52FB11D2C930196861744
:1009100098F38091A901680F6093A90180E0089580
:1009200081E0089508958FEF9FEF08958FEF9FEF77
:1009300008958091820190E09195819591090895A3
:10094000CF93DF93CB01EA01642F0E946B04CE01A9
:10095000DF91CF910895CF93DF931F92CDB7DEB78C
:10096000698361E0CE0101960E946B0481E090E012
:100970000F90DF91CF91089590E080E00895CF929D
:10098000DF92EF92FF920F931F93CF93DF93FC01BF
:10099000E058FF4FE080EE2009F458C0EC01C05C45
:1009A000DF4FA881B981109709F450C0FC01EF57BF
:1009B000FF4FC080D180F60111810081ED91FC9143
:1009C00011970190F081E02D60EFCD0109958881AC
:1009D0009981DC01ED91FC910190F081E02D69E7B6
:1009E000099588819981DC01ED91FC910190F0815C
:1009F000E02D602F099588819981DC01ED91FC91B2
:100A00000190F081E02D612F0995F12C01E010E0BB
:100A10000F5F1F4FE016F10639F0B601600F711F2E
:100A2000CE010E944B01F4CF88819981DC01ED91C8
:100A3000FC910190F081E02D67EFDF91CF911F9144
:100A40000F91FF90EF90DF90CF900994DF91CF91BD
:100A50001F910F91FF90EF90DF90CF900895009736
:100A600011F00C94BF04089582E08093FC0180E2B1
:100A70009EE49093870080938600E1E8F0E082E1B5
:100A8000808384E795E0909301018093000181E0E9
:100A900080936F00108210928500109284008091E4
:100AA000FC018061808368EC70E080E090E00C9451
:100AB0001403CF93C0910602C11102C00E943405F5
:100AC0008091FD01882369F080917E0190917F01E2
:100AD0001092FD01C11103C020E120938100CF914C
:100AE000089590E080E0F6CF89E00E945C0260E02B
:100AF000019709F061E089E00E94850282E080931D
:100B0000FC0180E29EE4909387008093860082E15E
:100B10008093810084E795E0909301018093000128
:100B200081E080936F0008950F931F9382E00E94ED
:100B30005C02892B69F40E94EF0260937A01709342
:100B40007B0180937C0190937D011F910F9108950B
:100B50000E94EF0200917A0110917B0120917C01AB
:100B600030917D01601B710B820B930B60937E01B2
:100B700070937F01809380019093810181E0809345
:100B8000FD01E3CF0895CF93DF9300D0CDB7DEB75B
:100B900089839A83AE014F5F5F4F62E070E083E02C
:100BA0000E9471010F900F90DF91CF910895FC0189
:100BB00083858F3F19F061E00C9485020895FC0154
:100BC00080819181892B39F0A281B3819C9111960A
:100BD0008C919CBD8DBD83858F3F19F060E00C9496
:100BE00085020895AF92BF92CF92DF92EF92FF926B
:100BF0000F931F93CF93DF93EC0188819981892B09
:100C000089F06EBD0DB407FEFDCFBEB48B2DDF9114
:100C1000CF911F910F91FF90EF90DF90CF90BF90F9
:100C2000AF9008958885998511E0892B09F010E827
:100C3000AA24A394862F812309F0A12C062F2C81AE
:100C40003D814E815F8160E271EA87E090E00E9421
:100C5000EE16F22EB02EE12CC22ED12CFF2019F070
:100C6000C6010E94E4028A85877F09F042C08D8513
:100C70008F3F89F0902F912381E009F480E08A155D
:100C800051F0EF85F8898F89992369F19081892B3B
:100C90008083AA24A394E989FA898081998D892B7C
:100CA0008083FF2019F0C6010E94E4028E858F3FE9
:100CB00039F0EB89FC898081988D892309F0E12A3C
:100CC000E989FA899081898D8095892380838E8531
:100CD0008F3F09F0BE2C88859985892BB9F5110FB6
:100CE0001111BCCF93CF9081809589238083A12C53
:100CF000D2CFE989FA898081998D892B8083FF2061
:100D000019F0C6010E94E4028D858F3F49F0EF85FE
:100D1000F8898F89902F9123A9F09081892B808366
:100D2000E989FA899081898D8095892380838E85D0
:100D30008F3F69F2EB89FC898081988D892339F294
:100D4000E12AC5CF908180958923E9CF1695C8CF38
:100D5000CF92DF92EF92FF920F931F93CF93DF9387
:100D6000182F6B01C091F901D091FA017901CE01E0
:100D70000E94DF05612FCE010E94F2058601C801A5
:100D80008C199D098E159F0538F4F80161918F012A
:100D9000CE010E94F205F3CFCE010E94D70580E07C
:100DA000DF91CF911F910F91FF90EF90DF90CF9047
:100DB0000895CF92DF92EF92FF920F931F93CF93FC
:100DC000DF93182F7B01C091F901D091FA016901DD
:100DD000CE010E94DF05612FCE010E94F20587013E
:100DE000C8018E199F098C159D0540F46FEFCE0147
:100DF0000E94F205F80181938F01F2CFCE010E948B
:100E0000D70580E0DF91CF911F910F91FF90EF9078
:100E1000DF90CF9008953F924F925F926F927F92B2
:100E20008F929F92AF92BF92CF92DF92EF92FF92FA
:100E30000F931F93CF93DF93CDB7DEB7382E4B01BF
:100E400029013A01CDB6DEB60E949F0081116FC024
:100E5000ADB6BEB680919303A3019201280F311D58
:100E6000411D511D8DB79EB7821B930B0FB6F89491
:100E70009EBF0FBE8DBFEDB7FEB731967F01E091EB
:100E80009403F091950300918E0310918F0380914C
:100E9000900390919103019709F441C0B701832D0C
:100EA0008068099580939203840180E090E0DC01E2
:100EB00020919303AC01BD01420F511D611D711DB5
:100EC0004E0D5F1DFA012081F80121938F010196DB
:100ED000A11DB11D481659066A067B0649F7809187
:100EE0009203811189EF0FB6F894BEBE0FBEADBE5E
:100EF0000FB6F894DEBE0FBECDBEDF91CF911F912D
:100F00000F91FF90EF90DF90CF90BF90AF909F90A8
:100F10008F907F906F905F904F903F900895A301C6
:100F20009201B401832D099580939203D8CF8FEF5E
:100F3000DFCF2F923F924F925F926F927F928F926C
:100F40009F92AF92BF92CF92DF92EF92FF920F9358
:100F50001F93CF93DF93CDB7DEB77C018B0149019F
:100F60005A012DB63EB629013A01440C551C661CA7
:100F7000771C8DB79EB7841995090FB6F8949EBF5C
:100F80000FBE8DBFADB7BEB711966D010E949F0019
:100F9000811172C08AEF81149104A104B10409F493
:100FA00040C0F8018081D6018C938091900390918C
:100FB0009103892B09F45EC0B1E08B169104A10462
:100FC000B104E9F0C7010196F6010F5F1F4F41E040
:100FD00050E060E070E0DC012D91CD012183D8016B
:100FE0002D918D0122834F5F5F4F6F4F7F4F329660
:100FF000481559056A057B0570F3530142010091BC
:101000008E0310918F03E0919603F0919703A50151
:101010009401B601D7018C910995809392038111B7
:1010200089EF0FB6F8943EBE0FBE2DBEDF91CF9173
:101030001F910F91FF90EF90DF90CF90BF90AF90F6
:101040009F908F907F906F905F904F903F902F90E8
:101050000895F701E80FF11D90819F7790838F5FCE
:10106000482F50E070E060E0481559056A057B059F
:1010700080F3A2CF80E0F4CF8FEFD3CF1F93CF9335
:10108000DF9300D0CDB7DEB78BE18A831091F303F5
:1010900021E030E040E050E0BE016F5F7F4F0E94F2
:1010A0000B07811114C089818F7C90E1199F9001F9
:1010B00011242073822B898321E030E040E050E04E
:1010C000BE016F5F7F4FCE0102960E9499070F907D
:1010D0000F90DF91CF911F910895CF93DF9300D0B0
:1010E00000D0CDB7DEB78EE78C8386EB8B830E9472
:1010F0009F00811138C021E030E040E050E0BE01A7
:101100006E5F7F4F83E00E940B079A8194FF2AC095
:10111000811128C021E030E040E050E0BE016D5F69
:101120007F4FCE0104960E94990781111CC0409107
:101130008E0350918F03E0919803F091990360ED35
:1011400077E080E090E0099521E030E040E050E079
:10115000BE016F5F7F4F82E00E940B0799819E77EF
:1011600009F481118CEF0F900F900F900F90DF9189
:10117000CF9108954F925F926F927F928F929F923C
:10118000AF92BF92CF92DF92EF92FF920F931F9395
:10119000CF93DF93CDB7DEB76A970FB6F894DEBF73
:1011A0000FBECDBF80917D0390917E039093FA0195
:1011B0008093F90181E08093F50380918003882377
:1011C00009F47AC284E290E021E02093F4032091B4
:1011D00081037C01211173C26894E1F880917F033F
:1011E000882311F06894E6F880918203882311F037
:1011F0006894E7F80E949F00811164C28BE18F839D
:1012000021E030E040E050E08E010F5F1F4FB80159
:101210000E940B07811115C089819091F403917090
:101220008C7F892B9091F503990F9270892B89837C
:1012300021E030E040E050E0B801CE0107960E9486
:1012400099079701207F3327232B09F470C0811160
:1012500039C21F821886198624E030E040E050E051
:10126000B8018CE10E940B07811161C0C701807336
:101270009927D12C892BD1F02091F703E4FE07C0E8
:101280008981887F9091F6039770892B8983E5FE89
:1012900009C08981877C98E0299F900111242873D7
:1012A000822B89838CE18F83DD24D394E7FE19C0E0
:1012B0008091F903823118F081E18093F9032D2D9B
:1012C00030E0F801E20FF31F8A81807E9091F903EC
:1012D0009F71892B80832C0F3D1F8DE1F90187833E
:1012E000D394E6FE13C02D2D30E0F801E20FF31F7A
:1012F0008091F803880F8E709C81917F892B808369
:101300002C0F3D1F8FE1F9018783D3948091F30364
:10131000833021F40E94BD00811109C02D2D30E0E1
:1013200050E040E0B801CE0107960E949907811174
:10133000C9C181E08093F3030E949F008111C2C163
:1013400021E030E040E050E0BE01665F7F4F8BE17E
:101350000E940B07F82E8A8590E044E095958795CA
:101360004A95E1F783708A87882331F18BE18F8377
:1013700021E030E040E050E0B8010E940B07F82E79
:1013800081110DC089818F7C898321E030E040E0AC
:1013900050E0B801CE0107960E949907F82E4091BF
:1013A0008E0350918F03E0919803F091990368E8C0
:1013B00073E180E090E00995F11084C10E943E083D
:1013C000811180C186E0F80111928A95E9F70E94A7
:1013D0009F00811177C126E030E040E050E0B80185
:1013E00084E00E940B0781116DC18A814B80512CD2
:1013F000712C612C320155244424582A8981482AB1
:101400002D816E8170E090E080E0CB017727662728
:10141000722B2C81622B0E94C11720919A0330916C
:101420009B0340919C0350919D030E9425176B01E3
:101430007C01AC019B010E944F182091A2033091C6
:10144000A3034091A4035091A5030E944F184B01A0
:101450005C0120919E0330919F034091A003509125
:10146000A103C701B6010E944F189B01AC01C50141
:10147000B4010E9426176B017C01C092D203D09266
:10148000D303E092D403F092D503AC019B010E94F8
:101490004F184B015C01A70196010E944F186F87FE
:1014A000788B898B9A8BC301B2010E94C1176B871D
:1014B0007C878D879E879B01AC010E944F186B8BA8
:1014C0007C8B8D8B9E8B2091AA033091AB03409136
:1014D000AC035091AD03C701B6010E944F18209193
:1014E000A6033091A7034091A8035091A9030E943D
:1014F00026172B013C012091AE033091AF034091A0
:10150000B0035091B103C501B4010E944F189B0173
:10151000AC01C301B2010E9426172B013C012091AE
:10152000B2033091B3034091B4035091B5036F857A
:10153000788989899A890E944F189B01AC01C3015F
:10154000B2010E9426172B853C854D855E850E9441
:101550004F186F8B788F898F9A8F2091BA033091B3
:10156000BB034091BC035091BD03C701B6010E946B
:101570004F182091B6033091B7034091B8035091B2
:10158000B9030E9426172B013C012091BE03309124
:10159000BF034091C0035091C103C501B4010E9433
:1015A0004F189B01AC01C301B2010E9426174B01E9
:1015B0005C012091C2033091C3034091C403509158
:1015C000C5036F85788989899A890E944F189B0184
:1015D000AC01C501B4010E9426179B01AC016F89C3
:1015E000788D898D9A8D0E9426174B015C01209180
:1015F000CA033091CB034091CC035091CD03C70176
:10160000B6010E944F182091C6033091C703409144
:10161000C8035091C9030E9426172B893C894D8924
:101620005E890E944F182B013C012B853C854D851E
:101630005E856B897C898D899E890E944F182091D7
:10164000CE033091CF034091D0035091D1030E943B
:101650004F189B01AC01C301B2010E9426179B01E8
:10166000AC01C501B4010E942617C0927303D09249
:101670007403E0927503F09276036093770370939E
:1016800078038093790390937A036A960FB6F8945F
:10169000DEBF0FBECDBFDF91CF911F910F91FF90A5
:1016A000EF90DF90CF90BF90AF909F908F907F9002
:1016B0006F905F904F90089584E090E085CD22E197
:1016C000E22A8CCD60E070E0CB01DFCFEF92FF9299
:1016D0000F931F93CF93DF93CDB7DEB728970FB645
:1016E000F894DEBF0FBECDBF182F062F7A018630CB
:1016F00009F444C0B8F4823059F1843071F1602F9C
:1017000070E0A701812F0E94710128960FB6F8940E
:10171000DEBF0FBECDBFDF91CF911F910F91FF9024
:10172000EF9008958730F1F1803F49F78091F701FC
:1017300089838091F6018A838091F5018B83AE01C4
:101740004F5F5F4F63E070E081EF0E947101D7CF80
:101750000E9459050E94C305D2CF0E94BA086D832A
:101760007E838F83988769837A838B839C83AE0182
:101770004F5F5F4F64E070E085E0E7CF81E08093EA
:1017800006020E9434050E94470366507F4F8F4F28
:101790009F4F609302027093030280930402909320
:1017A0000502ADCF1092060280E180938100A7CFA1
:1017B0001F93CF93DF9385ED8093BC0080918501CB
:1017C00090918601A0918701B09188010796A11D93
:1017D000B11D23E0B695A795979587952A95D1F7E2
:1017E0002091BC0024FD03C01092CD0152C0409155
:1017F0008501509186016091870170918801452B88
:10180000462B472B69F30097A105B10541F025E36D
:101810002A95F1F700000197A109B109E1CF809164
:101820008401C1E0C0938301882399F1D091B8006D
:101830001091BA008091BC008A7B8093BC0060E06C
:1018400082E10E94850260E083E10E94850210929D
:10185000CD01C093CF011092CE0161E082E10E94E0
:10186000850261E083E10E9485028091B9008E7F4C
:101870008093B9008091B9008D7F8093B90088E48E
:101880008093B80085E48093BC001093BA00D09395
:10189000B800DF91CF911F9108951F920F920FB65C
:1018A0000F9211242F933F938F939F93AF93BF93E6
:1018B0008091080290910902A0910A02B0910B0256
:1018C0003091070223E0230F2D3758F50196A11D13
:1018D000B11D209307028093080290930902A09300
:1018E0000A02B0930B0280910C0290910D02A0911C
:1018F0000E02B0910F020196A11DB11D80930C0242
:1019000090930D02A0930E02B0930F02BF91AF917E
:101910009F918F913F912F910F900FBE0F901F902D
:10192000189526E8230F0296A11DB11DD2CF1F9254
:101930000F920FB60F9211242F933F934F935F9303
:101940006F937F938F939F93AF93BF93EF93FF9387
:10195000E0910401F09105010995FF91EF91BF918C
:10196000AF919F918F917F916F915F914F913F9137
:101970002F910F900FBE0F901F9018951F920F92EE
:101980000FB60F9211242F933F934F935F936F9352
:101990007F938F939F93AF93BF93EF93FF93E091C8
:1019A0000201F09103010995FF91EF91BF91AF9171
:1019B0009F918F917F916F915F914F913F912F9167
:1019C0000F900FBE0F901F9018951F920F920FB699
:1019D0000F9211242F933F934F935F936F937F93B5
:1019E0008F939F93AF93BF93EF93FF9380E192E028
:1019F0000E94DC03FF91EF91BF91AF919F918F9176
:101A00007F916F915F914F913F912F910F900FBEFA
:101A10000F901F9018951F920F920FB60F921124DE
:101A20002F938F939F93EF93FF93E0912002F09178
:101A300021028081E0912602F091270282FD1BC0E5
:101A40009081809129028F5F8F7320912A028217E3
:101A500041F0E0912902F0E0E05FFD4F958F809327
:101A60002902FF91EF919F918F912F910F900FBEBF
:101A70000F901F9018958081F4CF1F920F920FB690
:101A80000F9211242F933F934F935F936F937F9304
:101A90008F939F93AF93BF93EF93FF938091B90080
:101AA000887F803609F44AC0F0F5883209F4A5C071
:101AB00018F5803109F499C0B8F4882309F4F5C009
:101AC000883009F492C0FF91EF91BF91AF919F913F
:101AD0008F917F916F915F914F913F912F910F90D7
:101AE0000FBE0F901F901895883109F486C0803280
:101AF00051F78093CC0114C0803409F49BC040F4AA
:101B00008033B9F38833F9F68093CC0185ECAEC00D
:101B1000803509F483C0883509F494C0883499F677
:101B20000E94D80BD0CF883909F48AC038F588379D
:101B300029F050F4883611F0803729F683E080933D
:101B4000CD011092CB0155C0883809F479C0803995
:101B500019F0803809F0B7CF8091CB01803208F0BE
:101B60006FC0E091CB0181E08E0F8093CB0180911B
:101B7000BB00F0E0E555FE4F80833BC0803B39F071
:101B8000D0F4803A09F477C0883A09F09CCF84E019
:101B90008093CD011092AA011092A901F0E0E0E03B
:101BA00009958091A90181110FC081E08093A9015D
:101BB0001092890109C0803C09F4A8CF883C09F43F
:101BC000A5CF883B09F07FCFE091AA0181E08E0F7D
:101BD0008093AA01F0E0E757FE4F80818093BB001D
:101BE0009091AA018091A90129C08091F20180936E
:101BF000BB0085EC8093BC0066CF9091F101809191
:101C0000F001981758F5E091F10181E08E0F809373
:101C1000F101F0E0E053FE4F8081E9CFE091F10166
:101C200081E08E0F8093F1018091BB00F0E0E053E2
:101C3000FE4F80839091F1018091F0019817C8F2D6
:101C400085E8D8CFE091F10181E08E0F8093F1011A
:101C50008091BB00F0E0E053FE4F80838091CF0184
:101C600081115ECF81E08093CE0184EA8093BC0035
:101C70001092CD0128CF85EC8093BC001092CD014D
:101C80008091CB01803230F4E091CB01F0E0E5555A
:101C9000FE4F10826091CB0170E08BEA91E0F0E0A2
:101CA000E0E009951092CB010ECF1092CC0138CF15
:101CB0001F920F920FB60F9211242F933F934F93C1
:101CC0005F936F937F938F939F93AF93BF93EF93A4
:101CD000FF93E0910001F09101010995FF91EF91CF
:101CE000BF91AF919F918F917F916F915F914F9134
:101CF0003F912F910F900FBE0F901F901895E0E12C
:101D0000F2E01382128288EE93E0A0E0B0E08483D8
:101D10009583A683B7838CE591E09183808385ECDE
:101D200090E09587848784EC90E09787868780ECA5
:101D300090E0918B808B81EC90E0938B828B82EC96
:101D400090E0958B848B86EC90E0978B868B118E40
:101D5000128E138E148E8DEA92E01092EE02109283
:101D6000ED029093F1028093F00220E430E0309392
:101D7000F3022093F2021092F4021092F5021092F4
:101D8000F7021092F6021092F8021092FA021092E4
:101D9000F9021092FC021092FB021092FE021092C5
:101DA000FD02109200031092FF02109202031092A3
:101DB0000103109204031092030310920603109281
:101DC000050310920C0310920B0310920E03109255
:101DD0000D031092100310920F0310921203109231
:101DE00011031092200310921F031092EF02109221
:101DF0002D0310922F0310922E03109272032CE8E1
:101E000030E030931403209313032DE830E0309337
:101E10001603209315032EE830E030931803209327
:101E200017032FE830E030931A032093190320E9B9
:101E300030E030931C0320931B0321E930E0309302
:101E40001E0320931D0322E930E0309322032093E8
:101E5000210323E930E030932403209323032FE26E
:101E600035E0309326032093250390930803809355
:101E7000070326E533E0309328032093270390934C
:101E80000A03809309038EE990E090932A038093DC
:101E90002903E3E7F3E01186108613861286168A7B
:101EA000178A108E118E1686158614860895CF9384
:101EB000DF93CDB7DEB769970FB6F894DEBF0FBEDC
:101EC000CDBF789484B5826084BD84B5816084BDC3
:101ED00085B5826085BD85B5816085BD80916E00C8
:101EE000816080936E0010928100809181008260F9
:101EF0008093810080918100816080938100809136
:101F000080008160809380008091B1008460809324
:101F1000B1008091B00081608093B00080917A0020
:101F2000846080937A0080917A00826080937A0046
:101F300080917A00816080937A0080917A00806835
:101F400080937A001092C10032E0F32EF092F701F4
:101F500081E08093F6011092F50188E080932D03D3
:101F600080912E0390912F030E94581900912D0308
:101F700010E0C80101960E94BC1890932F03809333
:101F80002E03FC01E00FF11F1082DC01FC92119680
:101F90001C92A801425051096EE671E002960E941F
:101FA000E11986E69BE09093F4018093F301E091C0
:101FB0002002F0912102F082E0912002F0912102B2
:101FC0001082E0911C02F0911D021082E0911E022D
:101FD000F0911F0280E1808310922802E091240298
:101FE000F091250286E08083E0912202F0912302A5
:101FF000808180618083E0912202F09123028081C0
:1020000088608083E0912202F091230280818068C1
:102010008083E0912202F091230280818F7D808372
:102020008091720381114FC061E08DE00E94B30284
:1020300062ED70E080E090E00E94140361E08DE0CA
:102040000E94850268E270E080E090E00E94140344
:1020500060E08DE00E94850262ED70E080E090E03B
:102060000E94140361E08DE00E94850268E270E046
:1020700080E090E00E94140360E08DE00E94850201
:102080006AEF70E080E090E00E94140315E062EDDA
:1020900070E080E090E00E94140361E08DE00E9417
:1020A000850268E270E080E090E00E94140360E046
:1020B0008DE00E948502115051F76DE770E080E0DD
:1020C00090E00E94140380E192E090932C038093AF
:1020D0002B039093EE028093ED028DEE92E00E942E
:1020E000BA018DEA92E00E94BF0461E081E10E94A2
:1020F000B30260E082E00E94B30261E089E00E94E6
:10210000B30261E081E10E9485021092FD0184E941
:1021100095E09093030180930201809169008C7F88
:10212000816080936900E89A80E180938100109239
:10213000800081E08093FC0110928700109286005D
:1021400081E18093810086E480937C0080917A0015
:10215000806480937A0080917A0086FDFCCF809124
:10216000780060917900762F682F072E000C880B7D
:10217000990B611571058105910511F00E94B31647
:102180001092060280917B0390917C03009711F0DE
:102190000E94581900917D0310917E0301151105CD
:1021A00051F0F80182819381009711F00E94581933
:1021B000C8010E94581910927C0310927B038CE195
:1021C00090E00E94BC188C0188E0D8011B968C938B
:1021D0001B978FEF1E968C931E971D968C931D97C1
:1021E0001C968C931C978BEF91E011969C938E9389
:1021F0005B961C9282E090E00E94BC1821E5FC01F5
:1022000020831182D80113969C938E93129780E4B9
:1022100092E4AFE0B0E0F80184839583A683B783AE
:1022200081E090E091878087128610937E0300936F
:102230007D031093FA010093F90161E088E00E94A8
:10224000B30261E0D8011B968C910E948502F801CF
:1022500080819181892B09F4AEC2FFB6F8948091F8
:10226000F801811127C0E0E9F0E08491E4EAF0E0B0
:102270009491E82FF0E0EE0FFF1FE859FF4FA59172
:10228000B491EC91E92321F461E08AE00E94850297
:1022900061E08AE00E94B3028CB580618CBD8CB590
:1022A00080648CBD61E08DE00E94B30261E08BE050
:1022B0000E94B3028091F8018F5F8093F801FFBE06
:1022C000FF24F394D8015B96FC9288E080938D0301
:1022D000109291031092900389ED96E090939503EC
:1022E0008093940388EA96E09093970380939603F3
:1022F0008091F9019091FA0190938F0380938E035E
:10230000F092930380917D0390917E039093FA0164
:102310008093F90183E593E0909399038093980368
:102320000E946D088111C2C11E8A0E949F008E0109
:102330000F5F1F4F811186C180919003909191038F
:10234000019709F45DC2F092930321E030E040E090
:1023500050E0BE016A5E7F4F80E00E940B07811152
:1023600071C18E89803519F0803609F06BC1809378
:102370008D030E946D08811165C185E1F8011192FC
:102380008A95E9F725E130E040E050E0B80181E3CB
:102390000E940B0769817A817093D7036093D603FB
:1023A00090E080E00E94C11720E030E040E853E474
:1023B0000E944F1860939A0370939B0380939C0331
:1023C00090939D036B817C817093D9036093D803B4
:1023D00090E080E00E94C11720E030E040E850E348
:1023E0000E944F1860939E0370939F038093A003F5
:1023F0009093A1036D816093DA03062E000C770B96
:10240000880B990B0E94C31720E030E040E857E2A8
:102410000E944F186093A2037093A3038093A403B8
:102420009093A5036E817F817093DC036093DB033F
:102430007054072E000C880B990B0E94C31720E0E4
:1024400030E040E855E30E944F186093A603709374
:10245000A7038093A8039093A90368857985709357
:10246000DE036093DD037054072E000C880B990B7C
:102470000E94C31720E030E040E051E30E944F1873
:102480006093AA037093AB038093AC039093AD0366
:102490006A856093DF03062E000C770B880B990B7F
:1024A0000E94C31720E030E040E85FE20E944F182E
:1024B0006093AE037093AF038093B0039093B10326
:1024C0006B856093E003062E000C770B880B990B4D
:1024D0000E94C31720E030E040E05DE20E944F1808
:1024E0006093B2037093B3038093B4039093B503E6
:1024F0006C857D857093E2036093E10390E080E05A
:102500000E94C11720E030E040E051E40E944F18E3
:102510006093B6037093B7038093B8039093B903A5
:102520006E857F857093E4036093E30390E080E021
:102530000E94C11720E030E040E85CE30E944F18A1
:102540006093BA037093BB038093BC039093BD0365
:1025500068896093E503062E000C770B880B990BB6
:102560000E94C31720E030E040E85BE30E944F1870
:102570006093BE037093BF038093C0039093C10325
:1025800069896093E603062E000C770B880B990B84
:102590000E94C31720E030E040E058E30E944F184B
:1025A0006093C2037093C3038093C4039093C503E5
:1025B0006A897B897093E8036093E703072E000C18
:1025C000880B990B0E94C31720E030E040E857E2E7
:1025D0000E944F186093C6037093C7038093C8038B
:1025E0009093C9036C896093E903062E000C770B66
:1025F000880B990B0E94C31720E030E040E857E2B7
:102600000E944F186093CA037093CB038093CC034E
:102610009093CD036D896093EA03062E000C770B2F
:10262000880B990B0E94C31720E030E040E05FE187
:102630000E944F186093CE037093CF038093D00312
:102640009093D10325E130E040E050E0B80181E310
:102650000E940B0781112AC0B801AE014A5E5F4F8C
:102660001FEF3DE1DB012D91BD0198E0822F812715
:10267000881F8827881F110F220F839F802D112408
:102680001827915099F76417750761F721E030E03A
:1026900040E050E080E30E940B0710959E891913DB
:1026A00005C0811103C081E08093F30381E0809332
:1026B000F7038093800395E09093F6038093810362
:1026C00092E09093F80380937F0394E09093F90352
:1026D000809382030AE010E00E94BA086AE070E08A
:1026E00080E090E00E94140301501109A9F70E94B4
:1026F000470368517C4F8F4F9F4F6093FE0170934B
:10270000FF01809300029093010200E010E0BB24DF
:10271000B39482E0E82EF12CCC24C394D12C809188
:102720002B0390912C03DC01ED91FC910084F18549
:10273000E02D0995892B09F4F7C180912B03909125
:102740002C03DC01ED91FC910284F385E02D0995C9
:102750009C018F3F980719F3982F8091F8028823E6
:1027600009F4BBC0973F09F0A7C01092F802A091EE
:10277000F002B091F1026C91613709F460C06937E1
:1027800009F084C0E0912503F0912603309739F2D7
:102790008091F9029091FA0283309105A0F530E022
:1027A00020E050E040E070E060E08091070390910D
:1027B00008030995B4CF61E084850E94B302F80153
:1027C00082858B7FD1F460E084850E948502F801C8
:1027D00085858F3F49F061E00E94B30261E0D80136
:1027E0001D968C910E948502F80186858F3F09F421
:1027F00067CD60E00E94B30263CD61E08485E5CFE0
:1028000010929303A2CDBD016D5F7F4F03970E948D
:102810001402BC016D5F7F4F80E00E94E401E091F3
:10282000F002F091F1029F012D5F3F4F428150E095
:10283000618170E0E0912503F0912603B6CF80918D
:10284000210390912203892B09F469CFBD016F5FA9
:102850007F4F8091F9029091FA0201970E94140231
:10286000BC016F5F7F4F80E00E94E4016091F00245
:102870007091F1026F5F7F4FE0912103F09122038D
:1028800080910D0390910E03099549CFE0912303A8
:10289000F0912403309709F442CF9D012F5F3F4F01
:1028A0004091F9025091FA024150510980910F0371
:1028B00090911003099533CF6091F9027091FA025B
:1028C000822F0E94E4018091F9029091FA02019610
:1028D0009093FA028093F90222CF6091F6027091F0
:1028E000F7026115710509F4B1C027FDAFC0615051
:1028F00071097093F7026093F602822F0E94E4013F
:102900008091F6029091F702892B09F008CF80910F
:10291000F402882309F403CF803D09F483C040F416
:10292000803949F1803C09F469C01092F402F7CE75
:10293000843FE1F1853F09F44DC0803EB1F7E0915D
:102940001303F0911403309781F3A091F002B0913A
:10295000F1024C9120E8429FC001112411964C9144
:10296000480F592F511D6091F5028091FB02909103
:10297000FC020995DACFE0911503F0911603309728
:10298000A1F2A091F002B091F1024C9120E8429F97
:10299000C001112411964C91480F592F511D60917F
:1029A000F5028091FD029091FE02E3CFE0911B03BE
:1029B000F0911C03309709F4B8CFA091F002B091C8
:1029C000F1024C9150E011966C918091030390912B
:1029D0000403CFCFE0911D03F0911E03309709F45B
:1029E000A4CFA091F002B091F1024C9150E0119669
:1029F0006C918091050390910603BBCFE091170382
:102A0000F0911803309709F490CFA091F002B091A3
:102A1000F1024C9150E06091F5028091FF0290919B
:102A20000003A7CFE0911903F0911A03309709F43E
:102A30007CCFA091F002B091F1024C9150E06091F6
:102A4000F502809101039091020393CF903F30F4FF
:102A5000822F8F708093F502922F907F903FF1F13B
:102A600090F4903CB1F150F4903909F058CEF092C6
:102A7000F702E092F6029093F40251CE903D49F1B4
:102A8000903EA9F34CCE993F09F442C028F48CE063
:102A9000890F823060F343CE9F3F09F040CE109201
:102AA000F7021092F6021092F4021092F50290E0F2
:102AB00080E02091F2023091F30282179307A8F48C
:102AC000E091F002F091F102E80FF91F10820196F7
:102AD000F0CFD092F702C092F602CDCFB092F802BA
:102AE0001092FA021092F9021ACE1092F802109285
:102AF000FA021092F902E0912903F0912A038091E1
:102B0000110390911203309709F409CE099507CE6D
:102B1000E0912703F0912803309709F400CE8091CB
:102B2000090390910A03F2CF809106028823A9F04D
:102B300040900202509003026090040270900502DF
:102B40000E944703641575058605970538F16419D9
:102B500075098609970997FF27C04090FE0150909C
:102B6000FF0160900002709001020E94470364150B
:102B7000750586059705E8F16419750986099709B1
:102B800097FF3DC00115110509F4C9CD0E94C80386
:102B9000882309F4C4CD0E940000C1CD461A570A0B
:102BA000680A790A77FED9CF0E94BA086E8B7F8BAC
:102BB000888F998F69837A838B839C83AE014F5F63
:102BC0005F4F64E070E085E00E9471010E9459054A
:102BD0000E94C3050E94470366507F4F8F4F9F4F4F
:102BE00060930202709303028093040290930502A3
:102BF000B4CF461A570A680A790A77FEC3CF81E133
:102C00000E945C0261E0019709F460E081E10E94AA
:102C100085020E94470368517C4F8F4F9F4F6093FE
:102C2000FE017093FF018093000290930102AACFEE
:102C30008F929F92AF92BF92CF92DF92EF92FF92CC
:102C4000CF93DF93EC01688179818A819B81611543
:102C500071058105910521F464E279ED8BE597E03A
:102C60002DE133EF41E050E00E94BC1649015A01CA
:102C70009B01AC01A7EAB1E40E94DB166B017C0169
:102C8000ACEEB4EFA50194010E94E916C60ED71E62
:102C9000E81EF91EF7FE06C081E0C81AD108E10857
:102CA00080E8F80AC882D982EA82FB82C701B601AD
:102CB0009F77DF91CF91FF90EF90DF90CF90BF9003
:102CC000AF909F908F9008958F929F92AF92BF92F6
:102CD000CF92DF92EF92FF9260910601709107010F
:102CE0008091080190910901611571058105910597
:102CF00021F464E279ED8BE597E02DE133EF41E0DB
:102D000050E00E94BC1649015A019B01AC01A7EAA0
:102D1000B1E40E94DB166B017C01ACEEB4EFA501BF
:102D200094010E94E916C60ED71EE81EF91EF7FE92
:102D300006C081E0C81AD108E10880E8F80AC0920C
:102D40000601D0920701E0920801F0920901C70143
:102D5000B6019F77FF90EF90DF90CF90BF90AF903C
:102D60009F908F9008956093060170930701809360
:102D70000801909309010895052E97FB1EF4009415
:102D80000E94D31657FD07D00E94EE1607FC03D011
:102D90004EF40C94D31650954095309521953F4FA5
:102DA0004F4F5F4F089590958095709561957F4F37
:102DB0008F4F9F4F08950E941017A59F900DB49FAD
:102DC000900DA49F800D911D11240895B7FF0C94C0
:102DD000DB160E94DB16821B930B0895A1E21A2ECC
:102DE000AA1BBB1BFD010DC0AA1FBB1FEE1FFF1FAF
:102DF000A217B307E407F50720F0A21BB30BE40BFF
:102E0000F50B661F771F881F991F1A9469F7609545
:102E10007095809590959B01AC01BD01CF010895FF
:102E2000A29FB001B39FC001A39F700D811D11240B
:102E3000911DB29F700D811D1124911D0895EE0FFB
:102E4000FF1F0590F491E02D09945058BB27AA2745
:102E50000E943D170C9415180E94071838F00E9424
:102E60000E1820F039F49F3F19F426F40C9404183E
:102E70000EF4E095E7FB0C94FE17E92F0E9426184C
:102E800058F3BA17620773078407950720F079F49F
:102E9000A6F50C9448180EF4E0950B2EBA2FA02D31
:102EA0000B01B90190010C01CA01A0011124FF27F7
:102EB000591B99F0593F50F4503E68F11A16F040F2
:102EC000A22F232F342F4427585FF3CF46953795F1
:102ED0002795A795F0405395C9F77EF41F16BA0BB6
:102EE000620B730B840BBAF09150A1F0FF0FBB1F64
:102EF000661F771F881FC2F70EC0BA0F621F731FAD
:102F0000841F48F4879577956795B795F7959E3F09
:102F100008F0B0CF9395880F08F09927EE0F97959A
:102F2000879508950E942E1888F09F5798F0B92F22
:102F30009927B751B0F0E1F0660F771F881F991FEE
:102F40001AF0BA95C9F714C0B13091F00E94481830
:102F5000B1E008950C944818672F782F8827B85F40
:102F600039F0B93FCCF3869577956795B395D9F746
:102F70003EF490958095709561957F4F8F4F9F4F50
:102F80000895E89409C097FB3EF49095809570955C
:102F900061957F4F8F4F9F4F9923A9F0F92F96E9A5
:102FA000BB279395F695879577956795B795F1111A
:102FB000F8CFFAF4BB0F11F460FF1BC06F5F7F4FB7
:102FC0008F4F9F4F16C0882311F096E911C07723C9
:102FD00021F09EE8872F762F05C0662371F096E8D2
:102FE000862F70E060E02AF09A95660F771F881FA1
:102FF000DAF7880F9695879597F9089597F99F675F
:1030000080E870E060E008959FEF80EC0895002470
:103010000A941616170618060906089500240A943D
:1030200012161306140605060895092E0394000CC3
:1030300011F4882352F0BB0F40F4BF2B11F460FF52
:1030400004C06F5F7F4F8F4F9F4F089557FD90587B
:10305000440F551F59F05F3F71F04795880F97FB5C
:10306000991F61F09F3F79F0879508951216130616
:103070001406551FF2CF4695F1DF08C01616170645
:103080001806991FF1CF869571056105089408957A
:10309000E894BB2766277727CB0197F908950E940C
:1030A00062180C9415180E94071838F00E940E1828
:1030B00020F0952311F00C94FE170C9404181124A1
:1030C0000C9449180E94261870F3959FC1F3950F30
:1030D00050E0551F629FF001729FBB27F00DB11D9C
:1030E000639FAA27F00DB11DAA1F649F6627B00D2C
:1030F000A11D661F829F2227B00DA11D621F739F15
:10310000B00DA11D621F839FA00D611D221F749F22
:103110003327A00D611D231F849F600D211D822F69
:10312000762F6A2F11249F5750409AF0F1F0882390
:103130004AF0EE0FFF1FBB1F661F771F881F9150BD
:103140005040A9F79E3F510580F00C94FE170C9457
:1031500049185F3FE4F3983ED4F3869577956795D9
:10316000B795F795E7959F5FC1F7FE2B880F911DE7
:103170009695879597F908950F931F93CF93DF93B3
:103180008230910510F482E090E0E0910E04F0911D
:103190000F0430E020E0B0E0A0E0309799F4211572
:1031A000310509F44AC0281B390B24303105D8F504
:1031B0008A819B816115710589F1FB01938382836B
:1031C000FE0111C0408151810281138148175907C6
:1031D000E0F04817590799F4109761F012960C9394
:1031E000129713961C933296CF01DF91CF911F91C6
:1031F0000F91089500930E0410930F04F4CF21153E
:10320000310551F04217530738F0A901DB019A014B
:10321000BD01DF01F801C1CFEF01F9CF90930F0499
:1032200080930E04CDCFFE01E20FF31F81939193A3
:103230002250310939832883D7CF20910C04309153
:103240000D04232B41F420910C0130910D0130939A
:103250000D0420930C0420910A0130910B012115DB
:10326000310541F42DB73EB740910E0150910F0149
:10327000241B350BE0910C04F0910D04E217F307C9
:10328000A0F42E1B3F0B2817390778F0AC014E5FD6
:103290005F4F2417350748F04E0F5F1F50930D0402
:1032A00040930C04819391939FCFF0E0E0E09CCF9A
:1032B000CF93DF930097E9F0FC01329713821282DB
:1032C000A0910E04B0910F04ED0130E020E01097C2
:1032D000A1F420813181820F931F20910C04309141
:1032E0000D042817390709F061C0F0930D04E0932D
:1032F0000C04DF91CF910895EA01CE17DF07E8F5BE
:103300004A815B819E0141155105B1F7E901FB83BB
:10331000EA8349915991C40FD51FEC17FD0761F459
:10332000808191810296840F951FE901998388839A
:10333000828193819B838A83F0E0E0E012968D91F5
:103340009C9113970097B9F52D913C911197CD0160
:103350000296820F931F20910C0430910D042817C0
:10336000390739F6309751F510920F0410920E0478
:10337000B0930D04A0930C04BCCFD383C2834081CF
:103380005181840F951FC817D90761F44E5F5F4FB5
:1033900088819981480F591F518340838A819B817D
:1033A000938382832115310509F0B0CFF0930F0488
:1033B000E0930E049ECFFD01DC01C0CF1382128288
:1033C000D7CFFB01DC014150504048F001900D92F5
:1033D0000020C9F701C01D9241505040E0F7089508
:0433E000F894FFCF8F
:1033E400C2055D035D0301000000000010048000BD
:1033F4008813000010270000204E0000409C0000AD
:10340400803801000071020000E2040000C40900D9
:10341400008813000010270000204E0000409C008C
:1034240000803801000071020000E2040000C409B9
:10343400000088130000102700000000FE035E0354
:103444008B034B04BC039A03AE037372635C536532
:0A3454007269616C2E637070000055
:00000001FF
